{
  "_format": "hh-sol-artifact-1",
  "contractName": "GreenDish",
  "sourceName": "contracts/GreenDish.sol",
  "abi": [
    {
      "inputs": [
        {
          "internalType": "string",
          "name": "_dishName",
          "type": "string"
        },
        {
          "internalType": "uint256",
          "name": "_dishPrice",
          "type": "uint256"
        },
        {
          "internalType": "uint256",
          "name": "_Inventory",
          "type": "uint256"
        },
        {
          "internalType": "uint256",
          "name": "_CarbonCredits",
          "type": "uint256"
        },
        {
          "internalType": "string",
          "name": "_mainComponent",
          "type": "string"
        },
        {
          "internalType": "string",
          "name": "_SupplySource",
          "type": "string"
        }
      ],
      "stateMutability": "nonpayable",
      "type": "constructor"
    },
    {
      "anonymous": false,
      "inputs": [
        {
          "indexed": false,
          "internalType": "address",
          "name": "buyer",
          "type": "address"
        },
        {
          "indexed": false,
          "internalType": "uint256",
          "name": "numberOfDishes",
          "type": "uint256"
        }
      ],
      "name": "DishPurchased",
      "type": "event"
    },
    {
      "anonymous": false,
      "inputs": [
        {
          "indexed": false,
          "internalType": "uint256",
          "name": "newInventory",
          "type": "uint256"
        }
      ],
      "name": "InventoryUpdated",
      "type": "event"
    },
    {
      "anonymous": false,
      "inputs": [
        {
          "indexed": false,
          "internalType": "uint256",
          "name": "newReward",
          "type": "uint256"
        }
      ],
      "name": "TokenRewardUpdated",
      "type": "event"
    },
    {
      "inputs": [],
      "name": "CarbonCredits",
      "outputs": [
        {
          "internalType": "uint256",
          "name": "",
          "type": "uint256"
        }
      ],
      "stateMutability": "view",
      "type": "function"
    },
    {
      "inputs": [
        {
          "internalType": "address",
          "name": "",
          "type": "address"
        }
      ],
      "name": "DishesBought",
      "outputs": [
        {
          "internalType": "uint256",
          "name": "",
          "type": "uint256"
        }
      ],
      "stateMutability": "view",
      "type": "function"
    },
    {
      "inputs": [],
      "name": "Inventory",
      "outputs": [
        {
          "internalType": "uint256",
          "name": "",
          "type": "uint256"
        }
      ],
      "stateMutability": "view",
      "type": "function"
    },
    {
      "inputs": [],
      "name": "SupplySource",
      "outputs": [
        {
          "internalType": "string",
          "name": "",
          "type": "string"
        }
      ],
      "stateMutability": "view",
      "type": "function"
    },
    {
      "inputs": [],
      "name": "availableInventory",
      "outputs": [
        {
          "internalType": "uint256",
          "name": "",
          "type": "uint256"
        }
      ],
      "stateMutability": "view",
      "type": "function"
    },
    {
      "inputs": [],
      "name": "dishName",
      "outputs": [
        {
          "internalType": "string",
          "name": "",
          "type": "string"
        }
      ],
      "stateMutability": "view",
      "type": "function"
    },
    {
      "inputs": [],
      "name": "dishPrice",
      "outputs": [
        {
          "internalType": "uint256",
          "name": "",
          "type": "uint256"
        }
      ],
      "stateMutability": "view",
      "type": "function"
    },
    {
      "inputs": [],
      "name": "getAvailableSeats",
      "outputs": [
        {
          "internalType": "uint256",
          "name": "",
          "type": "uint256"
        }
      ],
      "stateMutability": "view",
      "type": "function"
    },
    {
      "inputs": [
        {
          "internalType": "address",
          "name": "_buyer",
          "type": "address"
        }
      ],
      "name": "getTotalDishesBought",
      "outputs": [
        {
          "internalType": "uint256",
          "name": "",
          "type": "uint256"
        }
      ],
      "stateMutability": "view",
      "type": "function"
    },
    {
      "inputs": [],
      "name": "greenCoinToken",
      "outputs": [
        {
          "internalType": "contract IERC20",
          "name": "",
          "type": "address"
        }
      ],
      "stateMutability": "view",
      "type": "function"
    },
    {
      "inputs": [],
      "name": "hasAvailableInventory",
      "outputs": [
        {
          "internalType": "bool",
          "name": "",
          "type": "bool"
        }
      ],
      "stateMutability": "view",
      "type": "function"
    },
    {
      "inputs": [],
      "name": "mainComponent",
      "outputs": [
        {
          "internalType": "string",
          "name": "",
          "type": "string"
        }
      ],
      "stateMutability": "view",
      "type": "function"
    },
    {
      "inputs": [],
      "name": "owner",
      "outputs": [
        {
          "internalType": "address",
          "name": "",
          "type": "address"
        }
      ],
      "stateMutability": "view",
      "type": "function"
    },
    {
      "inputs": [
        {
          "internalType": "uint256",
          "name": "_numberOfDishes",
          "type": "uint256"
        }
      ],
      "name": "purchaseDish",
      "outputs": [],
      "stateMutability": "payable",
      "type": "function"
    },
    {
      "inputs": [],
      "name": "rewardPerPurchase",
      "outputs": [
        {
          "internalType": "uint256",
          "name": "",
          "type": "uint256"
        }
      ],
      "stateMutability": "view",
      "type": "function"
    },
    {
      "inputs": [
        {
          "internalType": "uint256",
          "name": "_rewardAmount",
          "type": "uint256"
        }
      ],
      "name": "setRewardAmount",
      "outputs": [],
      "stateMutability": "nonpayable",
      "type": "function"
    },
    {
      "inputs": [
        {
          "internalType": "address",
          "name": "_tokenAddress",
          "type": "address"
        }
      ],
      "name": "setTokenAddress",
      "outputs": [],
      "stateMutability": "nonpayable",
      "type": "function"
    },
    {
      "inputs": [
        {
          "internalType": "uint256",
          "name": "_newInventory",
          "type": "uint256"
        }
      ],
      "name": "updateInventory",
      "outputs": [],
      "stateMutability": "nonpayable",
      "type": "function"
    },
    {
      "inputs": [],
      "name": "withdrawETH",
      "outputs": [],
      "stateMutability": "nonpayable",
      "type": "function"
    },
    {
      "inputs": [
        {
          "internalType": "uint256",
          "name": "_amount",
          "type": "uint256"
        }
      ],
      "name": "withdrawTokens",
      "outputs": [],
      "stateMutability": "nonpayable",
      "type": "function"
    }
  ],
  "bytecode": "0x6080604052674563918244f40000600a553480156200001d57600080fd5b5060405162001f0338038062001f038339818101604052810190620000439190620002b0565b8560009081620000549190620005ea565b50846001819055508360028190555083600381905550826004819055508160059081620000829190620005ea565b508060069081620000949190620005ea565b5033600860006101000a81548173ffffffffffffffffffffffffffffffffffffffff021916908373ffffffffffffffffffffffffffffffffffffffff160217905550505050505050620006d1565b6000604051905090565b600080fd5b600080fd5b600080fd5b600080fd5b6000601f19601f8301169050919050565b7f4e487b7100000000000000000000000000000000000000000000000000000000600052604160045260246000fd5b6200014b8262000100565b810181811067ffffffffffffffff821117156200016d576200016c62000111565b5b80604052505050565b600062000182620000e2565b905062000190828262000140565b919050565b600067ffffffffffffffff821115620001b357620001b262000111565b5b620001be8262000100565b9050602081019050919050565b60005b83811015620001eb578082015181840152602081019050620001ce565b60008484015250505050565b60006200020e620002088462000195565b62000176565b9050828152602081018484840111156200022d576200022c620000fb565b5b6200023a848285620001cb565b509392505050565b600082601f8301126200025a5762000259620000f6565b5b81516200026c848260208601620001f7565b91505092915050565b6000819050919050565b6200028a8162000275565b81146200029657600080fd5b50565b600081519050620002aa816200027f565b92915050565b60008060008060008060c08789031215620002d057620002cf620000ec565b5b600087015167ffffffffffffffff811115620002f157620002f0620000f1565b5b620002ff89828a0162000242565b96505060206200031289828a0162000299565b95505060406200032589828a0162000299565b94505060606200033889828a0162000299565b935050608087015167ffffffffffffffff8111156200035c576200035b620000f1565b5b6200036a89828a0162000242565b92505060a087015167ffffffffffffffff8111156200038e576200038d620000f1565b5b6200039c89828a0162000242565b9150509295509295509295565b600081519050919050565b7f4e487b7100000000000000000000000000000000000000000000000000000000600052602260045260246000fd5b60006002820490506001821680620003fc57607f821691505b602082108103620004125762000411620003b4565b5b50919050565b60008190508160005260206000209050919050565b60006020601f8301049050919050565b600082821b905092915050565b6000600883026200047c7fffffffffffffffffffffffffffffffffffffffffffffffffffffffffffffffff826200043d565b6200048886836200043d565b95508019841693508086168417925050509392505050565b6000819050919050565b6000620004cb620004c5620004bf8462000275565b620004a0565b62000275565b9050919050565b6000819050919050565b620004e783620004aa565b620004ff620004f682620004d2565b8484546200044a565b825550505050565b600090565b6200051662000507565b62000523818484620004dc565b505050565b5b818110156200054b576200053f6000826200050c565b60018101905062000529565b5050565b601f8211156200059a57620005648162000418565b6200056f846200042d565b810160208510156200057f578190505b620005976200058e856200042d565b83018262000528565b50505b505050565b600082821c905092915050565b6000620005bf600019846008026200059f565b1980831691505092915050565b6000620005da8383620005ac565b9150826002028217905092915050565b620005f582620003a9565b67ffffffffffffffff81111562000611576200061062000111565b5b6200061d8254620003e3565b6200062a8282856200054f565b600060209050601f8311600181146200066257600084156200064d578287015190505b620006598582620005cc565b865550620006c9565b601f198416620006728662000418565b60005b828110156200069c5784890151825560018201915060208501945060208101905062000675565b86831015620006bc5784890151620006b8601f891682620005ac565b8355505b6001600288020188555050505b505050505050565b61182280620006e16000396000f3fe60806040526004361061011f5760003560e01c80638da5cb5b116100a0578063d203133011610064578063d2031330146103b8578063d23212f3146103e3578063d88f1e901461040c578063e086e5ec14610437578063fa0ec9e11461044e5761011f565b80638da5cb5b146102e3578063906d895d1461030e5780639d04f85514610339578063a8a65a7814610364578063bcbabb1e1461038d5761011f565b8063315a095d116100e7578063315a095d1461021d5780633495924a1461024657806354579f301461026257806367c527751461028d5780637086906e146102b85761011f565b806305e7d56b146101245780630f8110391461016157806321583ae01461019e57806326a4e8d2146101c957806328305913146101f2575b600080fd5b34801561013057600080fd5b5061014b600480360381019061014691906110fb565b610479565b6040516101589190611141565b60405180910390f35b34801561016d57600080fd5b50610188600480360381019061018391906110fb565b6104c2565b6040516101959190611141565b60405180910390f35b3480156101aa57600080fd5b506101b36104da565b6040516101c09190611141565b60405180910390f35b3480156101d557600080fd5b506101f060048036038101906101eb91906110fb565b6104e0565b005b3480156101fe57600080fd5b506102076105b4565b60405161021491906111bb565b60405180910390f35b34801561022957600080fd5b50610244600480360381019061023f9190611202565b6105da565b005b610260600480360381019061025b9190611202565b6108fd565b005b34801561026e57600080fd5b50610277610bc0565b6040516102849190611141565b60405180910390f35b34801561029957600080fd5b506102a2610bc6565b6040516102af919061124a565b60405180910390f35b3480156102c457600080fd5b506102cd610bd2565b6040516102da91906112f5565b60405180910390f35b3480156102ef57600080fd5b506102f8610c60565b6040516103059190611326565b60405180910390f35b34801561031a57600080fd5b50610323610c86565b6040516103309190611141565b60405180910390f35b34801561034557600080fd5b5061034e610c90565b60405161035b9190611141565b60405180910390f35b34801561037057600080fd5b5061038b60048036038101906103869190611202565b610c96565b005b34801561039957600080fd5b506103a2610d67565b6040516103af9190611141565b60405180910390f35b3480156103c457600080fd5b506103cd610d6d565b6040516103da91906112f5565b60405180910390f35b3480156103ef57600080fd5b5061040a60048036038101906104059190611202565b610dfb565b005b34801561041857600080fd5b50610421610f09565b60405161042e91906112f5565b60405180910390f35b34801561044357600080fd5b5061044c610f97565b005b34801561045a57600080fd5b50610463611092565b6040516104709190611141565b60405180910390f35b6000600760008373ffffffffffffffffffffffffffffffffffffffff1673ffffffffffffffffffffffffffffffffffffffff168152602001908152602001600020549050919050565b60076020528060005260406000206000915090505481565b60045481565b600860009054906101000a900473ffffffffffffffffffffffffffffffffffffffff1673ffffffffffffffffffffffffffffffffffffffff163373ffffffffffffffffffffffffffffffffffffffff1614610570576040517f08c379a0000000000000000000000000000000000000000000000000000000008152600401610567906113b3565b60405180910390fd5b80600960006101000a81548173ffffffffffffffffffffffffffffffffffffffff021916908373ffffffffffffffffffffffffffffffffffffffff16021790555050565b600960009054906101000a900473ffffffffffffffffffffffffffffffffffffffff1681565b600860009054906101000a900473ffffffffffffffffffffffffffffffffffffffff1673ffffffffffffffffffffffffffffffffffffffff163373ffffffffffffffffffffffffffffffffffffffff161461066a576040517f08c379a0000000000000000000000000000000000000000000000000000000008152600401610661906113b3565b60405180910390fd5b600073ffffffffffffffffffffffffffffffffffffffff16600960009054906101000a900473ffffffffffffffffffffffffffffffffffffffff1673ffffffffffffffffffffffffffffffffffffffff16036106fb576040517f08c379a00000000000000000000000000000000000000000000000000000000081526004016106f29061141f565b60405180910390fd5b6000600960009054906101000a900473ffffffffffffffffffffffffffffffffffffffff1673ffffffffffffffffffffffffffffffffffffffff166370a08231306040518263ffffffff1660e01b81526004016107589190611326565b602060405180830381865afa158015610775573d6000803e3d6000fd5b505050506040513d601f19601f820116820180604052508101906107999190611454565b905060008083146107aa57826107ac565b815b9050818111156107f1576040517f08c379a00000000000000000000000000000000000000000000000000000000081526004016107e8906114cd565b60405180910390fd5b6000600960009054906101000a900473ffffffffffffffffffffffffffffffffffffffff1673ffffffffffffffffffffffffffffffffffffffff1663a9059cbb600860009054906101000a900473ffffffffffffffffffffffffffffffffffffffff16846040518363ffffffff1660e01b81526004016108729291906114ed565b6020604051808303816000875af1158015610891573d6000803e3d6000fd5b505050506040513d601f19601f820116820180604052508101906108b59190611542565b9050806108f7576040517f08c379a00000000000000000000000000000000000000000000000000000000081526004016108ee906115bb565b60405180910390fd5b50505050565b600354811115610942576040517f08c379a000000000000000000000000000000000000000000000000000000000815260040161093990611627565b60405180910390fd5b806001546109509190611676565b341015610992576040517f08c379a000000000000000000000000000000000000000000000000000000000815260040161098990611704565b60405180910390fd5b80600360008282546109a49190611724565b9250508190555080600760003373ffffffffffffffffffffffffffffffffffffffff1673ffffffffffffffffffffffffffffffffffffffff16815260200190815260200160002060008282546109fa9190611758565b925050819055507f8f19ce3a59aaef2d54960bcedcc472d9e32b4abd879c22033b597e0dad7bab423382604051610a329291906114ed565b60405180910390a1600081600154610a4a9190611676565b34610a559190611724565b90506000811115610aa8573373ffffffffffffffffffffffffffffffffffffffff166108fc829081150290604051600060405180830381858888f19350505050158015610aa6573d6000803e3d6000fd5b505b600073ffffffffffffffffffffffffffffffffffffffff16600960009054906101000a900473ffffffffffffffffffffffffffffffffffffffff1673ffffffffffffffffffffffffffffffffffffffff1614158015610b0957506000600a54115b15610bbc57600960009054906101000a900473ffffffffffffffffffffffffffffffffffffffff1673ffffffffffffffffffffffffffffffffffffffff1663a9059cbb3384600a54610b5b9190611676565b6040518363ffffffff1660e01b8152600401610b789291906114ed565b6020604051808303816000875af1925050508015610bb457506040513d601f19601f82011682018060405250810190610bb19190611542565b60015b15610bbb57505b5b5050565b60015481565b60008060035411905090565b60058054610bdf906117bb565b80601f0160208091040260200160405190810160405280929190818152602001828054610c0b906117bb565b8015610c585780601f10610c2d57610100808354040283529160200191610c58565b820191906000526020600020905b815481529060010190602001808311610c3b57829003601f168201915b505050505081565b600860009054906101000a900473ffffffffffffffffffffffffffffffffffffffff1681565b6000600354905090565b60035481565b600860009054906101000a900473ffffffffffffffffffffffffffffffffffffffff1673ffffffffffffffffffffffffffffffffffffffff163373ffffffffffffffffffffffffffffffffffffffff1614610d26576040517f08c379a0000000000000000000000000000000000000000000000000000000008152600401610d1d906113b3565b60405180910390fd5b80600a819055507f3886f77ff3a0a284770cba0bda07921695c5150cad412d3e3f1ec1803a2f3f0d81604051610d5c9190611141565b60405180910390a150565b60025481565b60008054610d7a906117bb565b80601f0160208091040260200160405190810160405280929190818152602001828054610da6906117bb565b8015610df35780601f10610dc857610100808354040283529160200191610df3565b820191906000526020600020905b815481529060010190602001808311610dd657829003601f168201915b505050505081565b600860009054906101000a900473ffffffffffffffffffffffffffffffffffffffff1673ffffffffffffffffffffffffffffffffffffffff163373ffffffffffffffffffffffffffffffffffffffff1614610e8b576040517f08c379a0000000000000000000000000000000000000000000000000000000008152600401610e82906113b3565b60405180910390fd5b60006002548211610e9d576000610eac565b60025482610eab9190611724565b5b9050816002819055508060036000828254610ec79190611758565b925050819055507f1d087fd5934e28b24a242228fd2dc420d2dfcea0c12a4930944c21c5d307c89982604051610efd9190611141565b60405180910390a15050565b60068054610f16906117bb565b80601f0160208091040260200160405190810160405280929190818152602001828054610f42906117bb565b8015610f8f5780601f10610f6457610100808354040283529160200191610f8f565b820191906000526020600020905b815481529060010190602001808311610f7257829003601f168201915b505050505081565b600860009054906101000a900473ffffffffffffffffffffffffffffffffffffffff1673ffffffffffffffffffffffffffffffffffffffff163373ffffffffffffffffffffffffffffffffffffffff1614611027576040517f08c379a000000000000000000000000000000000000000000000000000000000815260040161101e906113b3565b60405180910390fd5b600860009054906101000a900473ffffffffffffffffffffffffffffffffffffffff1673ffffffffffffffffffffffffffffffffffffffff166108fc479081150290604051600060405180830381858888f1935050505015801561108f573d6000803e3d6000fd5b50565b600a5481565b600080fd5b600073ffffffffffffffffffffffffffffffffffffffff82169050919050565b60006110c88261109d565b9050919050565b6110d8816110bd565b81146110e357600080fd5b50565b6000813590506110f5816110cf565b92915050565b60006020828403121561111157611110611098565b5b600061111f848285016110e6565b91505092915050565b6000819050919050565b61113b81611128565b82525050565b60006020820190506111566000830184611132565b92915050565b6000819050919050565b600061118161117c6111778461109d565b61115c565b61109d565b9050919050565b600061119382611166565b9050919050565b60006111a582611188565b9050919050565b6111b58161119a565b82525050565b60006020820190506111d060008301846111ac565b92915050565b6111df81611128565b81146111ea57600080fd5b50565b6000813590506111fc816111d6565b92915050565b60006020828403121561121857611217611098565b5b6000611226848285016111ed565b91505092915050565b60008115159050919050565b6112448161122f565b82525050565b600060208201905061125f600083018461123b565b92915050565b600081519050919050565b600082825260208201905092915050565b60005b8381101561129f578082015181840152602081019050611284565b60008484015250505050565b6000601f19601f8301169050919050565b60006112c782611265565b6112d18185611270565b93506112e1818560208601611281565b6112ea816112ab565b840191505092915050565b6000602082019050818103600083015261130f81846112bc565b905092915050565b611320816110bd565b82525050565b600060208201905061133b6000830184611317565b92915050565b7f4f6e6c7920746865206f776e65722063616e2063616c6c20746869732066756e60008201527f6374696f6e000000000000000000000000000000000000000000000000000000602082015250565b600061139d602583611270565b91506113a882611341565b604082019050919050565b600060208201905081810360008301526113cc81611390565b9050919050565b7f546f6b656e206e6f7420636f6e66696775726564000000000000000000000000600082015250565b6000611409601483611270565b9150611414826113d3565b602082019050919050565b60006020820190508181036000830152611438816113fc565b9050919050565b60008151905061144e816111d6565b92915050565b60006020828403121561146a57611469611098565b5b60006114788482850161143f565b91505092915050565b7f416d6f756e7420657863656564732062616c616e636500000000000000000000600082015250565b60006114b7601683611270565b91506114c282611481565b602082019050919050565b600060208201905081810360008301526114e6816114aa565b9050919050565b60006040820190506115026000830185611317565b61150f6020830184611132565b9392505050565b61151f8161122f565b811461152a57600080fd5b50565b60008151905061153c81611516565b92915050565b60006020828403121561155857611557611098565b5b60006115668482850161152d565b91505092915050565b7f546f6b656e207472616e73666572206661696c65640000000000000000000000600082015250565b60006115a5601583611270565b91506115b08261156f565b602082019050919050565b600060208201905081810360008301526115d481611598565b9050919050565b7f4e6f7420656e6f7567682064697368657320617661696c61626c650000000000600082015250565b6000611611601b83611270565b915061161c826115db565b602082019050919050565b6000602082019050818103600083015261164081611604565b9050919050565b7f4e487b7100000000000000000000000000000000000000000000000000000000600052601160045260246000fd5b600061168182611128565b915061168c83611128565b925082820261169a81611128565b915082820484148315176116b1576116b0611647565b5b5092915050565b7f496e73756666696369656e742066756e64732073656e74000000000000000000600082015250565b60006116ee601783611270565b91506116f9826116b8565b602082019050919050565b6000602082019050818103600083015261171d816116e1565b9050919050565b600061172f82611128565b915061173a83611128565b925082820390508181111561175257611751611647565b5b92915050565b600061176382611128565b915061176e83611128565b925082820190508082111561178657611785611647565b5b92915050565b7f4e487b7100000000000000000000000000000000000000000000000000000000600052602260045260246000fd5b600060028204905060018216806117d357607f821691505b6020821081036117e6576117e561178c565b5b5091905056fea26469706673582212202045455e388a0324c81fd8c7f5488f1740c6d940380ee98eaff8cf57abcaa43664736f6c63430008130033",
  "linkReferences": {},
  "deployedLinkReferences": {}
}