{
  "_format": "hh-sol-artifact-1",
  "contractName": "GreenRestaurant",
  "sourceName": "contracts/GreenRestaurant.sol",
  "abi": [
    {
      "inputs": [],
      "stateMutability": "nonpayable",
      "type": "constructor"
    },
    {
      "anonymous": false,
      "inputs": [
        {
          "indexed": true,
          "internalType": "address",
          "name": "owner",
          "type": "address"
        },
        {
          "indexed": true,
          "internalType": "address",
          "name": "spender",
          "type": "address"
        },
        {
          "indexed": false,
          "internalType": "uint256",
          "name": "value",
          "type": "uint256"
        }
      ],
      "name": "Approval",
      "type": "event"
    },
    {
      "anonymous": false,
      "inputs": [
        {
          "indexed": false,
          "internalType": "uint256",
          "name": "dishId",
          "type": "uint256"
        },
        {
          "indexed": false,
          "internalType": "string",
          "name": "dishName",
          "type": "string"
        }
      ],
      "name": "DishCreated",
      "type": "event"
    },
    {
      "anonymous": false,
      "inputs": [
        {
          "indexed": false,
          "internalType": "uint256",
          "name": "dishId",
          "type": "uint256"
        },
        {
          "indexed": false,
          "internalType": "address",
          "name": "buyer",
          "type": "address"
        },
        {
          "indexed": false,
          "internalType": "uint256",
          "name": "numberOfDishes",
          "type": "uint256"
        }
      ],
      "name": "DishPurchased",
      "type": "event"
    },
    {
      "anonymous": false,
      "inputs": [
        {
          "indexed": false,
          "internalType": "uint256",
          "name": "dishId",
          "type": "uint256"
        },
        {
          "indexed": false,
          "internalType": "bool",
          "name": "isActive",
          "type": "bool"
        }
      ],
      "name": "DishStatusChanged",
      "type": "event"
    },
    {
      "anonymous": false,
      "inputs": [
        {
          "indexed": false,
          "internalType": "uint256",
          "name": "dishId",
          "type": "uint256"
        },
        {
          "indexed": false,
          "internalType": "uint256",
          "name": "newInventory",
          "type": "uint256"
        }
      ],
      "name": "InventoryUpdated",
      "type": "event"
    },
    {
      "anonymous": false,
      "inputs": [
        {
          "indexed": false,
          "internalType": "string",
          "name": "restaurantName",
          "type": "string"
        },
        {
          "indexed": false,
          "internalType": "address",
          "name": "owner",
          "type": "address"
        }
      ],
      "name": "RestaurantInitialized",
      "type": "event"
    },
    {
      "anonymous": false,
      "inputs": [
        {
          "indexed": true,
          "internalType": "address",
          "name": "buyer",
          "type": "address"
        },
        {
          "indexed": false,
          "internalType": "uint256",
          "name": "amount",
          "type": "uint256"
        }
      ],
      "name": "TokensRewarded",
      "type": "event"
    },
    {
      "anonymous": false,
      "inputs": [
        {
          "indexed": true,
          "internalType": "address",
          "name": "from",
          "type": "address"
        },
        {
          "indexed": true,
          "internalType": "address",
          "name": "to",
          "type": "address"
        },
        {
          "indexed": false,
          "internalType": "uint256",
          "name": "value",
          "type": "uint256"
        }
      ],
      "name": "Transfer",
      "type": "event"
    },
    {
      "stateMutability": "payable",
      "type": "fallback"
    },
    {
      "inputs": [],
      "name": "REWARD_PERCENTAGE",
      "outputs": [
        {
          "internalType": "uint256",
          "name": "",
          "type": "uint256"
        }
      ],
      "stateMutability": "view",
      "type": "function"
    },
    {
      "inputs": [],
      "name": "TOTAL_SUPPLY",
      "outputs": [
        {
          "internalType": "uint256",
          "name": "",
          "type": "uint256"
        }
      ],
      "stateMutability": "view",
      "type": "function"
    },
    {
      "inputs": [
        {
          "internalType": "address",
          "name": "tokenOwner",
          "type": "address"
        },
        {
          "internalType": "address",
          "name": "spender",
          "type": "address"
        }
      ],
      "name": "allowance",
      "outputs": [
        {
          "internalType": "uint256",
          "name": "",
          "type": "uint256"
        }
      ],
      "stateMutability": "view",
      "type": "function"
    },
    {
      "inputs": [
        {
          "internalType": "address",
          "name": "",
          "type": "address"
        },
        {
          "internalType": "address",
          "name": "",
          "type": "address"
        }
      ],
      "name": "allowances",
      "outputs": [
        {
          "internalType": "uint256",
          "name": "",
          "type": "uint256"
        }
      ],
      "stateMutability": "view",
      "type": "function"
    },
    {
      "inputs": [
        {
          "internalType": "address",
          "name": "spender",
          "type": "address"
        },
        {
          "internalType": "uint256",
          "name": "amount",
          "type": "uint256"
        }
      ],
      "name": "approve",
      "outputs": [
        {
          "internalType": "bool",
          "name": "",
          "type": "bool"
        }
      ],
      "stateMutability": "nonpayable",
      "type": "function"
    },
    {
      "inputs": [
        {
          "internalType": "address",
          "name": "account",
          "type": "address"
        }
      ],
      "name": "balanceOf",
      "outputs": [
        {
          "internalType": "uint256",
          "name": "",
          "type": "uint256"
        }
      ],
      "stateMutability": "view",
      "type": "function"
    },
    {
      "inputs": [
        {
          "internalType": "address",
          "name": "",
          "type": "address"
        }
      ],
      "name": "balances",
      "outputs": [
        {
          "internalType": "uint256",
          "name": "",
          "type": "uint256"
        }
      ],
      "stateMutability": "view",
      "type": "function"
    },
    {
      "inputs": [
        {
          "internalType": "string",
          "name": "_dishName",
          "type": "string"
        },
        {
          "internalType": "uint256",
          "name": "_dishPrice",
          "type": "uint256"
        },
        {
          "internalType": "uint256",
          "name": "_inventory",
          "type": "uint256"
        },
        {
          "internalType": "uint256",
          "name": "_carbonCredits",
          "type": "uint256"
        },
        {
          "internalType": "string",
          "name": "_mainComponent",
          "type": "string"
        },
        {
          "internalType": "string",
          "name": "_supplySource",
          "type": "string"
        }
      ],
      "name": "createDish",
      "outputs": [
        {
          "internalType": "uint256",
          "name": "",
          "type": "uint256"
        }
      ],
      "stateMutability": "nonpayable",
      "type": "function"
    },
    {
      "inputs": [
        {
          "internalType": "string",
          "name": "_restaurantName",
          "type": "string"
        },
        {
          "internalType": "string",
          "name": "_dishName",
          "type": "string"
        },
        {
          "internalType": "uint256",
          "name": "_dishPrice",
          "type": "uint256"
        },
        {
          "internalType": "uint256",
          "name": "_inventory",
          "type": "uint256"
        },
        {
          "internalType": "uint256",
          "name": "_carbonCredits",
          "type": "uint256"
        },
        {
          "internalType": "string",
          "name": "_mainComponent",
          "type": "string"
        },
        {
          "internalType": "string",
          "name": "_supplySource",
          "type": "string"
        }
      ],
      "name": "createDish",
      "outputs": [
        {
          "internalType": "uint256",
          "name": "",
          "type": "uint256"
        }
      ],
      "stateMutability": "nonpayable",
      "type": "function"
    },
    {
      "inputs": [],
      "name": "decimals",
      "outputs": [
        {
          "internalType": "uint8",
          "name": "",
          "type": "uint8"
        }
      ],
      "stateMutability": "view",
      "type": "function"
    },
    {
      "inputs": [],
      "name": "dishCount",
      "outputs": [
        {
          "internalType": "uint256",
          "name": "",
          "type": "uint256"
        }
      ],
      "stateMutability": "view",
      "type": "function"
    },
    {
      "inputs": [
        {
          "internalType": "uint256",
          "name": "",
          "type": "uint256"
        }
      ],
      "name": "dishes",
      "outputs": [
        {
          "internalType": "string",
          "name": "dishName",
          "type": "string"
        },
        {
          "internalType": "uint256",
          "name": "dishPrice",
          "type": "uint256"
        },
        {
          "internalType": "uint256",
          "name": "inventory",
          "type": "uint256"
        },
        {
          "internalType": "uint256",
          "name": "availableInventory",
          "type": "uint256"
        },
        {
          "internalType": "uint256",
          "name": "carbonCredits",
          "type": "uint256"
        },
        {
          "internalType": "string",
          "name": "mainComponent",
          "type": "string"
        },
        {
          "internalType": "string",
          "name": "supplySource",
          "type": "string"
        },
        {
          "internalType": "bool",
          "name": "isActive",
          "type": "bool"
        }
      ],
      "stateMutability": "view",
      "type": "function"
    },
    {
      "inputs": [
        {
          "internalType": "uint256",
          "name": "",
          "type": "uint256"
        },
        {
          "internalType": "address",
          "name": "",
          "type": "address"
        }
      ],
      "name": "dishesBought",
      "outputs": [
        {
          "internalType": "uint256",
          "name": "",
          "type": "uint256"
        }
      ],
      "stateMutability": "view",
      "type": "function"
    },
    {
      "inputs": [
        {
          "internalType": "uint256",
          "name": "_dishId",
          "type": "uint256"
        }
      ],
      "name": "getDishInfo",
      "outputs": [
        {
          "internalType": "string",
          "name": "dishName",
          "type": "string"
        },
        {
          "internalType": "uint256",
          "name": "dishPrice",
          "type": "uint256"
        },
        {
          "internalType": "uint256",
          "name": "availableInventory",
          "type": "uint256"
        },
        {
          "internalType": "uint256",
          "name": "carbonCredits",
          "type": "uint256"
        },
        {
          "internalType": "string",
          "name": "mainComponent",
          "type": "string"
        },
        {
          "internalType": "string",
          "name": "supplySource",
          "type": "string"
        },
        {
          "internalType": "bool",
          "name": "isActive",
          "type": "bool"
        }
      ],
      "stateMutability": "view",
      "type": "function"
    },
    {
      "inputs": [],
      "name": "getRewardPoolBalance",
      "outputs": [
        {
          "internalType": "uint256",
          "name": "",
          "type": "uint256"
        }
      ],
      "stateMutability": "view",
      "type": "function"
    },
    {
      "inputs": [
        {
          "internalType": "string",
          "name": "_restaurantName",
          "type": "string"
        }
      ],
      "name": "initializeRestaurant",
      "outputs": [
        {
          "internalType": "bool",
          "name": "",
          "type": "bool"
        }
      ],
      "stateMutability": "nonpayable",
      "type": "function"
    },
    {
      "inputs": [],
      "name": "initialized",
      "outputs": [
        {
          "internalType": "bool",
          "name": "",
          "type": "bool"
        }
      ],
      "stateMutability": "view",
      "type": "function"
    },
    {
      "inputs": [],
      "name": "name",
      "outputs": [
        {
          "internalType": "string",
          "name": "",
          "type": "string"
        }
      ],
      "stateMutability": "view",
      "type": "function"
    },
    {
      "inputs": [],
      "name": "owner",
      "outputs": [
        {
          "internalType": "address",
          "name": "",
          "type": "address"
        }
      ],
      "stateMutability": "view",
      "type": "function"
    },
    {
      "inputs": [
        {
          "internalType": "uint256",
          "name": "_dishId",
          "type": "uint256"
        },
        {
          "internalType": "uint256",
          "name": "_numberOfDishes",
          "type": "uint256"
        }
      ],
      "name": "purchaseDish",
      "outputs": [],
      "stateMutability": "payable",
      "type": "function"
    },
    {
      "inputs": [],
      "name": "restaurantName",
      "outputs": [
        {
          "internalType": "string",
          "name": "",
          "type": "string"
        }
      ],
      "stateMutability": "view",
      "type": "function"
    },
    {
      "inputs": [],
      "name": "rewardPool",
      "outputs": [
        {
          "internalType": "address",
          "name": "",
          "type": "address"
        }
      ],
      "stateMutability": "view",
      "type": "function"
    },
    {
      "inputs": [
        {
          "internalType": "uint256",
          "name": "_dishId",
          "type": "uint256"
        },
        {
          "internalType": "bool",
          "name": "_isActive",
          "type": "bool"
        }
      ],
      "name": "setDishStatus",
      "outputs": [],
      "stateMutability": "nonpayable",
      "type": "function"
    },
    {
      "inputs": [],
      "name": "symbol",
      "outputs": [
        {
          "internalType": "string",
          "name": "",
          "type": "string"
        }
      ],
      "stateMutability": "view",
      "type": "function"
    },
    {
      "inputs": [],
      "name": "totalSupply",
      "outputs": [
        {
          "internalType": "uint256",
          "name": "",
          "type": "uint256"
        }
      ],
      "stateMutability": "pure",
      "type": "function"
    },
    {
      "inputs": [
        {
          "internalType": "address",
          "name": "recipient",
          "type": "address"
        },
        {
          "internalType": "uint256",
          "name": "amount",
          "type": "uint256"
        }
      ],
      "name": "transfer",
      "outputs": [
        {
          "internalType": "bool",
          "name": "",
          "type": "bool"
        }
      ],
      "stateMutability": "nonpayable",
      "type": "function"
    },
    {
      "inputs": [
        {
          "internalType": "address",
          "name": "sender",
          "type": "address"
        },
        {
          "internalType": "address",
          "name": "recipient",
          "type": "address"
        },
        {
          "internalType": "uint256",
          "name": "amount",
          "type": "uint256"
        }
      ],
      "name": "transferFrom",
      "outputs": [
        {
          "internalType": "bool",
          "name": "",
          "type": "bool"
        }
      ],
      "stateMutability": "nonpayable",
      "type": "function"
    },
    {
      "inputs": [
        {
          "internalType": "uint256",
          "name": "_dishId",
          "type": "uint256"
        },
        {
          "internalType": "uint256",
          "name": "_newInventory",
          "type": "uint256"
        }
      ],
      "name": "updateInventory",
      "outputs": [],
      "stateMutability": "nonpayable",
      "type": "function"
    },
    {
      "stateMutability": "payable",
      "type": "receive"
    }
  ],
  "bytecode": "0x60806040526000600160146101000a81548160ff0219169083151502179055503480156200002c57600080fd5b5030600760006101000a81548173ffffffffffffffffffffffffffffffffffffffff021916908373ffffffffffffffffffffffffffffffffffffffff16021790555069d3c21bcecceda100000060026000600760009054906101000a900473ffffffffffffffffffffffffffffffffffffffff1673ffffffffffffffffffffffffffffffffffffffff1673ffffffffffffffffffffffffffffffffffffffff16815260200190815260200160002081905550600760009054906101000a900473ffffffffffffffffffffffffffffffffffffffff1673ffffffffffffffffffffffffffffffffffffffff16600073ffffffffffffffffffffffffffffffffffffffff167fddf252ad1be2c89b69c2b068fc378daa952ba7f163c4a11628f55a4df523b3ef69d3c21bcecceda10000006040516200016a9190620001ae565b60405180910390a36000600760146101000a81548160ff021916908315150217905550620001cb565b6000819050919050565b620001a88162000193565b82525050565b6000602082019050620001c560008301846200019d565b92915050565b61320a80620001db6000396000f3fe6080604052600436106101bb5760003560e01c806366666aa9116100ec578063b9a1d6dd1161008a578063dd62ed3e11610064578063dd62ed3e1461068c578063f4938e05146106c9578063f6e4ba9914610706578063fc72b1ed14610731576101c2565b8063b9a1d6dd146105f9578063cb48fd2014610636578063d854fb7514610661576101c2565b8063902d55a5116100c6578063902d55a51461052957806395d89b4114610554578063a9059cbb1461057f578063ac9deb2a146105bc576101c2565b806366666aa91461049657806370a08231146104c15780638da5cb5b146104fe576101c2565b806325bdb61511610159578063322cfa0a11610133578063322cfa0a146103eb578063522547a81461041457806355b6ed5c1461043d578063564329091461047a576101c2565b806325bdb6151461034057806327e235e314610383578063313ce567146103c0576101c2565b8063095ea7b311610195578063095ea7b314610270578063158ef93e146102ad57806318160ddd146102d857806323b872dd14610303576101c2565b8063014f6b5f146101c4578063064fbd5a1461020157806306fdde0314610245576101c2565b366101c257005b005b3480156101d057600080fd5b506101eb60048036038101906101e69190612060565b61075c565b6040516101f891906120af565b60405180910390f35b34801561020d57600080fd5b50610228600480360381019061022391906120ca565b610781565b60405161023c9897969594939291906121a2565b60405180910390f35b34801561025157600080fd5b5061025a61096e565b6040516102679190612235565b60405180910390f35b34801561027c57600080fd5b5061029760048036038101906102929190612257565b6109a7565b6040516102a49190612297565b60405180910390f35b3480156102b957600080fd5b506102c2610a99565b6040516102cf9190612297565b60405180910390f35b3480156102e457600080fd5b506102ed610aac565b6040516102fa91906120af565b60405180910390f35b34801561030f57600080fd5b5061032a600480360381019061032591906122b2565b610abe565b6040516103379190612297565b60405180910390f35b34801561034c57600080fd5b50610367600480360381019061036291906120ca565b610c28565b60405161037a9796959493929190612305565b60405180910390f35b34801561038f57600080fd5b506103aa60048036038101906103a59190612389565b610e7a565b6040516103b791906120af565b60405180910390f35b3480156103cc57600080fd5b506103d5610e92565b6040516103e291906123d2565b60405180910390f35b3480156103f757600080fd5b50610412600480360381019061040d9190612419565b610e97565b005b34801561042057600080fd5b5061043b60048036038101906104369190612459565b61100f565b005b34801561044957600080fd5b50610464600480360381019061045f9190612499565b61121a565b60405161047191906120af565b60405180910390f35b610494600480360381019061048f9190612459565b61123f565b005b3480156104a257600080fd5b506104ab611540565b6040516104b891906124e8565b60405180910390f35b3480156104cd57600080fd5b506104e860048036038101906104e39190612389565b611566565b6040516104f591906120af565b60405180910390f35b34801561050a57600080fd5b506105136115af565b60405161052091906124e8565b60405180910390f35b34801561053557600080fd5b5061053e6115d5565b60405161054b91906120af565b60405180910390f35b34801561056057600080fd5b506105696115e3565b6040516105769190612235565b60405180910390f35b34801561058b57600080fd5b506105a660048036038101906105a19190612257565b61161c565b6040516105b39190612297565b60405180910390f35b3480156105c857600080fd5b506105e360048036038101906105de9190612638565b611633565b6040516105f091906120af565b60405180910390f35b34801561060557600080fd5b50610620600480360381019061061b9190612719565b61172e565b60405161062d9190612297565b60405180910390f35b34801561064257600080fd5b5061064b61182d565b60405161065891906120af565b60405180910390f35b34801561066d57600080fd5b50610676611833565b60405161068391906120af565b60405180910390f35b34801561069857600080fd5b506106b360048036038101906106ae9190612499565b61189c565b6040516106c091906120af565b60405180910390f35b3480156106d557600080fd5b506106f060048036038101906106eb9190612762565b611923565b6040516106fd91906120af565b60405180910390f35b34801561071257600080fd5b5061071b6119f4565b6040516107289190612235565b60405180910390f35b34801561073d57600080fd5b50610746611a82565b60405161075391906120af565b60405180910390f35b6005602052816000526040600020602052806000526040600020600091509150505481565b60046020528060005260406000206000915090508060000180546107a4906128a3565b80601f01602080910402602001604051908101604052809291908181526020018280546107d0906128a3565b801561081d5780601f106107f25761010080835404028352916020019161081d565b820191906000526020600020905b81548152906001019060200180831161080057829003601f168201915b50505050509080600101549080600201549080600301549080600401549080600501805461084a906128a3565b80601f0160208091040260200160405190810160405280929190818152602001828054610876906128a3565b80156108c35780601f10610898576101008083540402835291602001916108c3565b820191906000526020600020905b8154815290600101906020018083116108a657829003601f168201915b5050505050908060060180546108d8906128a3565b80601f0160208091040260200160405190810160405280929190818152602001828054610904906128a3565b80156109515780601f1061092657610100808354040283529160200191610951565b820191906000526020600020905b81548152906001019060200180831161093457829003601f168201915b5050505050908060070160009054906101000a900460ff16905088565b6040518060400160405280600981526020017f477265656e436f696e000000000000000000000000000000000000000000000081525081565b600081600360003373ffffffffffffffffffffffffffffffffffffffff1673ffffffffffffffffffffffffffffffffffffffff16815260200190815260200160002060008573ffffffffffffffffffffffffffffffffffffffff1673ffffffffffffffffffffffffffffffffffffffff168152602001908152602001600020819055508273ffffffffffffffffffffffffffffffffffffffff163373ffffffffffffffffffffffffffffffffffffffff167f8c5be1e5ebec7d5bd14f71427d1e84f3dd0314c0f7b2291e5b200ac8c7c3b92584604051610a8791906120af565b60405180910390a36001905092915050565b600160149054906101000a900460ff1681565b600069d3c21bcecceda1000000905090565b600081600360008673ffffffffffffffffffffffffffffffffffffffff1673ffffffffffffffffffffffffffffffffffffffff16815260200190815260200160002060003373ffffffffffffffffffffffffffffffffffffffff1673ffffffffffffffffffffffffffffffffffffffff168152602001908152602001600020541015610b7f576040517f08c379a0000000000000000000000000000000000000000000000000000000008152600401610b7690612946565b60405180910390fd5b81600360008673ffffffffffffffffffffffffffffffffffffffff1673ffffffffffffffffffffffffffffffffffffffff16815260200190815260200160002060003373ffffffffffffffffffffffffffffffffffffffff1673ffffffffffffffffffffffffffffffffffffffff1681526020019081526020016000206000828254610c0b9190612995565b92505081905550610c1d848484611a87565b600190509392505050565b6060600080600060608060006006548810610c78576040517f08c379a0000000000000000000000000000000000000000000000000000000008152600401610c6f90612a15565b60405180910390fd5b6000600460008a815260200190815260200160002090508060000181600101548260030154836004015484600501856006018660070160009054906101000a900460ff16868054610cc8906128a3565b80601f0160208091040260200160405190810160405280929190818152602001828054610cf4906128a3565b8015610d415780601f10610d1657610100808354040283529160200191610d41565b820191906000526020600020905b815481529060010190602001808311610d2457829003601f168201915b50505050509650828054610d54906128a3565b80601f0160208091040260200160405190810160405280929190818152602001828054610d80906128a3565b8015610dcd5780601f10610da257610100808354040283529160200191610dcd565b820191906000526020600020905b815481529060010190602001808311610db057829003601f168201915b50505050509250818054610de0906128a3565b80601f0160208091040260200160405190810160405280929190818152602001828054610e0c906128a3565b8015610e595780601f10610e2e57610100808354040283529160200191610e59565b820191906000526020600020905b815481529060010190602001808311610e3c57829003601f168201915b50505050509150975097509750975097509750975050919395979092949650565b60026020528060005260406000206000915090505481565b601281565b600160149054906101000a900460ff1615610f3d57600160009054906101000a900473ffffffffffffffffffffffffffffffffffffffff1673ffffffffffffffffffffffffffffffffffffffff163373ffffffffffffffffffffffffffffffffffffffff1614610f3c576040517f08c379a0000000000000000000000000000000000000000000000000000000008152600401610f3390612aa7565b60405180910390fd5b5b6006548210610f81576040517f08c379a0000000000000000000000000000000000000000000000000000000008152600401610f7890612a15565b60405180910390fd5b60006004600084815260200190815260200160002090508115158160070160009054906101000a900460ff1615151461100a57818160070160006101000a81548160ff0219169083151502179055507fbbd3c82937c5f5be6477c2cce6f22c760c71f04a6659b3e166b20d51e46ed09c8383604051611001929190612ac7565b60405180910390a15b505050565b600160149054906101000a900460ff16156110b557600160009054906101000a900473ffffffffffffffffffffffffffffffffffffffff1673ffffffffffffffffffffffffffffffffffffffff163373ffffffffffffffffffffffffffffffffffffffff16146110b4576040517f08c379a00000000000000000000000000000000000000000000000000000000081526004016110ab90612aa7565b60405180910390fd5b5b60065482106110f9576040517f08c379a00000000000000000000000000000000000000000000000000000000081526004016110f090612a15565b60405180910390fd5b6000600460008481526020019081526020016000209050600081600201548311611124576000611135565b8160020154836111349190612995565b5b9050828260020181905550808260030160008282546111549190612af0565b925050819055507fc3da32029c7581e1ff0ac81dbfdec1e6ffa311377c403de5640ea8ca50d8bc4b848460405161118c929190612b24565b60405180910390a1600082600301541180156111b757508160070160009054906101000a900460ff16155b156112145760018260070160006101000a81548160ff0219169083151502179055507fbbd3c82937c5f5be6477c2cce6f22c760c71f04a6659b3e166b20d51e46ed09c84600160405161120b929190612ac7565b60405180910390a15b50505050565b6003602052816000526040600020602052806000526040600020600091509150505481565b6006548210611283576040517f08c379a000000000000000000000000000000000000000000000000000000000815260040161127a90612a15565b60405180910390fd5b60006004600084815260200190815260200160002090508060070160009054906101000a900460ff166112eb576040517f08c379a00000000000000000000000000000000000000000000000000000000081526004016112e290612b99565b60405180910390fd5b8060030154821115611332576040517f08c379a000000000000000000000000000000000000000000000000000000000815260040161132990612c05565b60405180910390fd5b8181600101546113429190612c25565b341015611384576040517f08c379a000000000000000000000000000000000000000000000000000000000815260040161137b90612cb3565b60405180910390fd5b818160030160008282546113989190612995565b92505081905550816005600085815260200190815260200160002060003373ffffffffffffffffffffffffffffffffffffffff1673ffffffffffffffffffffffffffffffffffffffff16815260200190815260200160002060008282546113ff9190612af0565b9250508190555060008282600101546114189190612c25565b9050600081346114289190612995565b9050600084846004015461143c9190612c25565b90507f5daa85c8be73425de7036baeb87fadf1e6dd345b4850ccd764fe1cd8a47836b386338760405161147193929190612cd3565b60405180910390a160008460030154036114dd5760008460070160006101000a81548160ff0219169083151502179055507fbbd3c82937c5f5be6477c2cce6f22c760c71f04a6659b3e166b20d51e46ed09c8660006040516114d4929190612ac7565b60405180910390a15b6114e73382611c1f565b6000821115611538573373ffffffffffffffffffffffffffffffffffffffff166108fc839081150290604051600060405180830381858888f19350505050158015611536573d6000803e3d6000fd5b505b505050505050565b600760009054906101000a900473ffffffffffffffffffffffffffffffffffffffff1681565b6000600260008373ffffffffffffffffffffffffffffffffffffffff1673ffffffffffffffffffffffffffffffffffffffff168152602001908152602001600020549050919050565b600160009054906101000a900473ffffffffffffffffffffffffffffffffffffffff1681565b69d3c21bcecceda100000081565b6040518060400160405280600381526020017f475243000000000000000000000000000000000000000000000000000000000081525081565b6000611629338484611a87565b6001905092915050565b6000600160149054906101000a900460ff16611684576040517f08c379a000000000000000000000000000000000000000000000000000000000815260040161167b90612d56565b60405180910390fd5b600160009054906101000a900473ffffffffffffffffffffffffffffffffffffffff1673ffffffffffffffffffffffffffffffffffffffff163373ffffffffffffffffffffffffffffffffffffffff1614611714576040517f08c379a000000000000000000000000000000000000000000000000000000000815260040161170b90612aa7565b60405180910390fd5b611722878787878787611e74565b90509695505050505050565b6000600160149054906101000a900460ff1615611780576040517f08c379a000000000000000000000000000000000000000000000000000000000815260040161177790612dc2565b60405180910390fd5b816000908161178f9190612f8e565b5033600160006101000a81548173ffffffffffffffffffffffffffffffffffffffff021916908373ffffffffffffffffffffffffffffffffffffffff16021790555060018060146101000a81548160ff0219169083151502179055507fcf99fb44659504f10877579f1cd56d24e9a80811d04c5da9f03d68891420ebde823360405161181c929190613060565b60405180910390a160019050919050565b60065481565b600060026000600760009054906101000a900473ffffffffffffffffffffffffffffffffffffffff1673ffffffffffffffffffffffffffffffffffffffff1673ffffffffffffffffffffffffffffffffffffffff16815260200190815260200160002054905090565b6000600360008473ffffffffffffffffffffffffffffffffffffffff1673ffffffffffffffffffffffffffffffffffffffff16815260200190815260200160002060008373ffffffffffffffffffffffffffffffffffffffff1673ffffffffffffffffffffffffffffffffffffffff16815260200190815260200160002054905092915050565b6000600160149054906101000a900460ff16611948576119428861172e565b506119d9565b600160009054906101000a900473ffffffffffffffffffffffffffffffffffffffff1673ffffffffffffffffffffffffffffffffffffffff163373ffffffffffffffffffffffffffffffffffffffff16146119d8576040517f08c379a00000000000000000000000000000000000000000000000000000000081526004016119cf90612aa7565b60405180910390fd5b5b6119e7878787878787611e74565b9050979650505050505050565b60008054611a01906128a3565b80601f0160208091040260200160405190810160405280929190818152602001828054611a2d906128a3565b8015611a7a5780601f10611a4f57610100808354040283529160200191611a7a565b820191906000526020600020905b815481529060010190602001808311611a5d57829003601f168201915b505050505081565b600a81565b80600260008573ffffffffffffffffffffffffffffffffffffffff1673ffffffffffffffffffffffffffffffffffffffff168152602001908152602001600020541015611b09576040517f08c379a0000000000000000000000000000000000000000000000000000000008152600401611b00906130dc565b60405180910390fd5b80600260008573ffffffffffffffffffffffffffffffffffffffff1673ffffffffffffffffffffffffffffffffffffffff1681526020019081526020016000206000828254611b589190612995565b9250508190555080600260008473ffffffffffffffffffffffffffffffffffffffff1673ffffffffffffffffffffffffffffffffffffffff1681526020019081526020016000206000828254611bae9190612af0565b925050819055508173ffffffffffffffffffffffffffffffffffffffff168373ffffffffffffffffffffffffffffffffffffffff167fddf252ad1be2c89b69c2b068fc378daa952ba7f163c4a11628f55a4df523b3ef83604051611c1291906120af565b60405180910390a3505050565b60006064670de0b6b3a7640000600a84611c399190612c25565b611c439190612c25565b611c4d919061312b565b9050600060026000600760009054906101000a900473ffffffffffffffffffffffffffffffffffffffff1673ffffffffffffffffffffffffffffffffffffffff1673ffffffffffffffffffffffffffffffffffffffff16815260200190815260200160002054905080821115611cc1578091505b6000821115611e6e578160026000600760009054906101000a900473ffffffffffffffffffffffffffffffffffffffff1673ffffffffffffffffffffffffffffffffffffffff1673ffffffffffffffffffffffffffffffffffffffff1681526020019081526020016000206000828254611d3b9190612995565b9250508190555081600260008673ffffffffffffffffffffffffffffffffffffffff1673ffffffffffffffffffffffffffffffffffffffff1681526020019081526020016000206000828254611d919190612af0565b925050819055508373ffffffffffffffffffffffffffffffffffffffff16600760009054906101000a900473ffffffffffffffffffffffffffffffffffffffff1673ffffffffffffffffffffffffffffffffffffffff167fddf252ad1be2c89b69c2b068fc378daa952ba7f163c4a11628f55a4df523b3ef84604051611e1791906120af565b60405180910390a38373ffffffffffffffffffffffffffffffffffffffff167f0d3ecba324ef5a283bcbd5d1a966cab18661432ab3575740c588f7a0144b0dfa83604051611e6591906120af565b60405180910390a25b50505050565b600080600654905060405180610100016040528089815260200188815260200187815260200187815260200186815260200185815260200184815260200160011515815250600460008381526020019081526020016000206000820151816000019081611ee19190612f8e565b506020820151816001015560408201518160020155606082015181600301556080820151816004015560a0820151816005019081611f1f9190612f8e565b5060c0820151816006019081611f359190612f8e565b5060e08201518160070160006101000a81548160ff02191690831515021790555090505060066000815480929190611f6c9061315c565b91905055507fdb329c1db42a19235c79fe84c73b5bbbf18e4699e710466c4d5d0fabf609c60b8189604051611fa29291906131a4565b60405180910390a1809150509695505050505050565b6000604051905090565b600080fd5b600080fd5b6000819050919050565b611fdf81611fcc565b8114611fea57600080fd5b50565b600081359050611ffc81611fd6565b92915050565b600073ffffffffffffffffffffffffffffffffffffffff82169050919050565b600061202d82612002565b9050919050565b61203d81612022565b811461204857600080fd5b50565b60008135905061205a81612034565b92915050565b6000806040838503121561207757612076611fc2565b5b600061208585828601611fed565b92505060206120968582860161204b565b9150509250929050565b6120a981611fcc565b82525050565b60006020820190506120c460008301846120a0565b92915050565b6000602082840312156120e0576120df611fc2565b5b60006120ee84828501611fed565b91505092915050565b600081519050919050565b600082825260208201905092915050565b60005b83811015612131578082015181840152602081019050612116565b60008484015250505050565b6000601f19601f8301169050919050565b6000612159826120f7565b6121638185612102565b9350612173818560208601612113565b61217c8161213d565b840191505092915050565b60008115159050919050565b61219c81612187565b82525050565b60006101008201905081810360008301526121bd818b61214e565b90506121cc602083018a6120a0565b6121d960408301896120a0565b6121e660608301886120a0565b6121f360808301876120a0565b81810360a0830152612205818661214e565b905081810360c0830152612219818561214e565b905061222860e0830184612193565b9998505050505050505050565b6000602082019050818103600083015261224f818461214e565b905092915050565b6000806040838503121561226e5761226d611fc2565b5b600061227c8582860161204b565b925050602061228d85828601611fed565b9150509250929050565b60006020820190506122ac6000830184612193565b92915050565b6000806000606084860312156122cb576122ca611fc2565b5b60006122d98682870161204b565b93505060206122ea8682870161204b565b92505060406122fb86828701611fed565b9150509250925092565b600060e082019050818103600083015261231f818a61214e565b905061232e60208301896120a0565b61233b60408301886120a0565b61234860608301876120a0565b818103608083015261235a818661214e565b905081810360a083015261236e818561214e565b905061237d60c0830184612193565b98975050505050505050565b60006020828403121561239f5761239e611fc2565b5b60006123ad8482850161204b565b91505092915050565b600060ff82169050919050565b6123cc816123b6565b82525050565b60006020820190506123e760008301846123c3565b92915050565b6123f681612187565b811461240157600080fd5b50565b600081359050612413816123ed565b92915050565b600080604083850312156124305761242f611fc2565b5b600061243e85828601611fed565b925050602061244f85828601612404565b9150509250929050565b600080604083850312156124705761246f611fc2565b5b600061247e85828601611fed565b925050602061248f85828601611fed565b9150509250929050565b600080604083850312156124b0576124af611fc2565b5b60006124be8582860161204b565b92505060206124cf8582860161204b565b9150509250929050565b6124e281612022565b82525050565b60006020820190506124fd60008301846124d9565b92915050565b600080fd5b600080fd5b7f4e487b7100000000000000000000000000000000000000000000000000000000600052604160045260246000fd5b6125458261213d565b810181811067ffffffffffffffff821117156125645761256361250d565b5b80604052505050565b6000612577611fb8565b9050612583828261253c565b919050565b600067ffffffffffffffff8211156125a3576125a261250d565b5b6125ac8261213d565b9050602081019050919050565b82818337600083830152505050565b60006125db6125d684612588565b61256d565b9050828152602081018484840111156125f7576125f6612508565b5b6126028482856125b9565b509392505050565b600082601f83011261261f5761261e612503565b5b813561262f8482602086016125c8565b91505092915050565b60008060008060008060c0878903121561265557612654611fc2565b5b600087013567ffffffffffffffff81111561267357612672611fc7565b5b61267f89828a0161260a565b965050602061269089828a01611fed565b95505060406126a189828a01611fed565b94505060606126b289828a01611fed565b935050608087013567ffffffffffffffff8111156126d3576126d2611fc7565b5b6126df89828a0161260a565b92505060a087013567ffffffffffffffff811115612700576126ff611fc7565b5b61270c89828a0161260a565b9150509295509295509295565b60006020828403121561272f5761272e611fc2565b5b600082013567ffffffffffffffff81111561274d5761274c611fc7565b5b6127598482850161260a565b91505092915050565b600080600080600080600060e0888a03121561278157612780611fc2565b5b600088013567ffffffffffffffff81111561279f5761279e611fc7565b5b6127ab8a828b0161260a565b975050602088013567ffffffffffffffff8111156127cc576127cb611fc7565b5b6127d88a828b0161260a565b96505060406127e98a828b01611fed565b95505060606127fa8a828b01611fed565b945050608061280b8a828b01611fed565b93505060a088013567ffffffffffffffff81111561282c5761282b611fc7565b5b6128388a828b0161260a565b92505060c088013567ffffffffffffffff81111561285957612858611fc7565b5b6128658a828b0161260a565b91505092959891949750929550565b7f4e487b7100000000000000000000000000000000000000000000000000000000600052602260045260246000fd5b600060028204905060018216806128bb57607f821691505b6020821081036128ce576128cd612874565b5b50919050565b7f45524332303a207472616e7366657220616d6f756e742065786365656473206160008201527f6c6c6f77616e6365000000000000000000000000000000000000000000000000602082015250565b6000612930602883612102565b915061293b826128d4565b604082019050919050565b6000602082019050818103600083015261295f81612923565b9050919050565b7f4e487b7100000000000000000000000000000000000000000000000000000000600052601160045260246000fd5b60006129a082611fcc565b91506129ab83611fcc565b92508282039050818111156129c3576129c2612966565b5b92915050565b7f4469736820646f6573206e6f7420657869737400000000000000000000000000600082015250565b60006129ff601383612102565b9150612a0a826129c9565b602082019050919050565b60006020820190508181036000830152612a2e816129f2565b9050919050565b7f4f6e6c7920746865206f776e65722063616e2063616c6c20746869732066756e60008201527f6374696f6e000000000000000000000000000000000000000000000000000000602082015250565b6000612a91602583612102565b9150612a9c82612a35565b604082019050919050565b60006020820190508181036000830152612ac081612a84565b9050919050565b6000604082019050612adc60008301856120a0565b612ae96020830184612193565b9392505050565b6000612afb82611fcc565b9150612b0683611fcc565b9250828201905080821115612b1e57612b1d612966565b5b92915050565b6000604082019050612b3960008301856120a0565b612b4660208301846120a0565b9392505050565b7f546869732064697368206973206e6f7420617661696c61626c65000000000000600082015250565b6000612b83601a83612102565b9150612b8e82612b4d565b602082019050919050565b60006020820190508181036000830152612bb281612b76565b9050919050565b7f4e6f7420656e6f7567682064697368657320617661696c61626c650000000000600082015250565b6000612bef601b83612102565b9150612bfa82612bb9565b602082019050919050565b60006020820190508181036000830152612c1e81612be2565b9050919050565b6000612c3082611fcc565b9150612c3b83611fcc565b9250828202612c4981611fcc565b91508282048414831517612c6057612c5f612966565b5b5092915050565b7f496e73756666696369656e742066756e64730000000000000000000000000000600082015250565b6000612c9d601283612102565b9150612ca882612c67565b602082019050919050565b60006020820190508181036000830152612ccc81612c90565b9050919050565b6000606082019050612ce860008301866120a0565b612cf560208301856124d9565b612d0260408301846120a0565b949350505050565b7f52657374617572616e74206e6f7420696e697469616c697a6564000000000000600082015250565b6000612d40601a83612102565b9150612d4b82612d0a565b602082019050919050565b60006020820190508181036000830152612d6f81612d33565b9050919050565b7f52657374617572616e7420616c726561647920696e697469616c697a65640000600082015250565b6000612dac601e83612102565b9150612db782612d76565b602082019050919050565b60006020820190508181036000830152612ddb81612d9f565b9050919050565b60008190508160005260206000209050919050565b60006020601f8301049050919050565b600082821b905092915050565b600060088302612e447fffffffffffffffffffffffffffffffffffffffffffffffffffffffffffffffff82612e07565b612e4e8683612e07565b95508019841693508086168417925050509392505050565b6000819050919050565b6000612e8b612e86612e8184611fcc565b612e66565b611fcc565b9050919050565b6000819050919050565b612ea583612e70565b612eb9612eb182612e92565b848454612e14565b825550505050565b600090565b612ece612ec1565b612ed9818484612e9c565b505050565b5b81811015612efd57612ef2600082612ec6565b600181019050612edf565b5050565b601f821115612f4257612f1381612de2565b612f1c84612df7565b81016020851015612f2b578190505b612f3f612f3785612df7565b830182612ede565b50505b505050565b600082821c905092915050565b6000612f6560001984600802612f47565b1980831691505092915050565b6000612f7e8383612f54565b9150826002028217905092915050565b612f97826120f7565b67ffffffffffffffff811115612fb057612faf61250d565b5b612fba82546128a3565b612fc5828285612f01565b600060209050601f831160018114612ff85760008415612fe6578287015190505b612ff08582612f72565b865550613058565b601f19841661300686612de2565b60005b8281101561302e57848901518255600182019150602085019450602081019050613009565b8683101561304b5784890151613047601f891682612f54565b8355505b6001600288020188555050505b505050505050565b6000604082019050818103600083015261307a818561214e565b905061308960208301846124d9565b9392505050565b7f5472616e7366657220616d6f756e7420657863656564732062616c616e636500600082015250565b60006130c6601f83612102565b91506130d182613090565b602082019050919050565b600060208201905081810360008301526130f5816130b9565b9050919050565b7f4e487b7100000000000000000000000000000000000000000000000000000000600052601260045260246000fd5b600061313682611fcc565b915061314183611fcc565b925082613151576131506130fc565b5b828204905092915050565b600061316782611fcc565b91507fffffffffffffffffffffffffffffffffffffffffffffffffffffffffffffffff820361319957613198612966565b5b600182019050919050565b60006040820190506131b960008301856120a0565b81810360208301526131cb818461214e565b9050939250505056fea2646970667358221220b3b43998a756493bf4a1dff4261779bef25fce271d16fbcae8bdede50d7f331864736f6c63430008110033",
  "linkReferences": {},
  "deployedLinkReferences": {}
}