{
  "_format": "hh-sol-artifact-1",
  "contractName": "GreenDish",
  "sourceName": "contracts/GreenDish.sol",
  "abi": [
    {
      "inputs": [
        {
          "internalType": "address",
          "name": "_tokenAddress",
          "type": "address"
        }
      ],
      "stateMutability": "nonpayable",
      "type": "constructor"
    },
    {
      "anonymous": false,
      "inputs": [
        {
          "indexed": true,
          "internalType": "address",
          "name": "customer",
          "type": "address"
        },
        {
          "indexed": false,
          "internalType": "enum GreenDish.LoyaltyTier",
          "name": "tier",
          "type": "uint8"
        },
        {
          "indexed": false,
          "internalType": "uint256",
          "name": "multiplier",
          "type": "uint256"
        }
      ],
      "name": "CustomerLoyaltyTierUpdated",
      "type": "event"
    },
    {
      "anonymous": false,
      "inputs": [
        {
          "indexed": false,
          "internalType": "uint256",
          "name": "dishId",
          "type": "uint256"
        },
        {
          "indexed": false,
          "internalType": "address",
          "name": "customer",
          "type": "address"
        },
        {
          "indexed": false,
          "internalType": "uint256",
          "name": "numberOfDishes",
          "type": "uint256"
        }
      ],
      "name": "DishPurchased",
      "type": "event"
    },
    {
      "anonymous": false,
      "inputs": [
        {
          "indexed": false,
          "internalType": "uint256",
          "name": "dishId",
          "type": "uint256"
        },
        {
          "indexed": false,
          "internalType": "bool",
          "name": "isActive",
          "type": "bool"
        }
      ],
      "name": "DishStatusChanged",
      "type": "event"
    },
    {
      "anonymous": false,
      "inputs": [
        {
          "indexed": false,
          "internalType": "uint256",
          "name": "dishId",
          "type": "uint256"
        },
        {
          "indexed": false,
          "internalType": "uint256",
          "name": "newInventory",
          "type": "uint256"
        }
      ],
      "name": "InventoryUpdated",
      "type": "event"
    },
    {
      "anonymous": false,
      "inputs": [
        {
          "indexed": false,
          "internalType": "uint256",
          "name": "dishId",
          "type": "uint256"
        },
        {
          "indexed": false,
          "internalType": "string",
          "name": "restaurantName",
          "type": "string"
        },
        {
          "indexed": false,
          "internalType": "address",
          "name": "restaurantOwner",
          "type": "address"
        },
        {
          "indexed": false,
          "internalType": "string",
          "name": "dishName",
          "type": "string"
        }
      ],
      "name": "RestaurantDishCreated",
      "type": "event"
    },
    {
      "anonymous": false,
      "inputs": [
        {
          "indexed": true,
          "internalType": "address",
          "name": "restaurant",
          "type": "address"
        },
        {
          "indexed": false,
          "internalType": "enum GreenDish.RestaurantTier",
          "name": "tier",
          "type": "uint8"
        },
        {
          "indexed": false,
          "internalType": "uint256",
          "name": "multiplier",
          "type": "uint256"
        }
      ],
      "name": "RestaurantLoyaltyTierUpdated",
      "type": "event"
    },
    {
      "anonymous": false,
      "inputs": [
        {
          "indexed": false,
          "internalType": "uint256",
          "name": "requestedAmount",
          "type": "uint256"
        },
        {
          "indexed": false,
          "internalType": "uint256",
          "name": "remainingBalance",
          "type": "uint256"
        }
      ],
      "name": "RewardPoolDepleted",
      "type": "event"
    },
    {
      "anonymous": false,
      "inputs": [
        {
          "indexed": false,
          "internalType": "address",
          "name": "tokenAddress",
          "type": "address"
        }
      ],
      "name": "TokenContractSet",
      "type": "event"
    },
    {
      "anonymous": false,
      "inputs": [
        {
          "indexed": true,
          "internalType": "address",
          "name": "recipient",
          "type": "address"
        },
        {
          "indexed": false,
          "internalType": "uint256",
          "name": "amount",
          "type": "uint256"
        }
      ],
      "name": "TokensRewarded",
      "type": "event"
    },
    {
      "stateMutability": "payable",
      "type": "fallback"
    },
    {
      "inputs": [],
      "name": "REWARD_PERCENTAGE",
      "outputs": [
        {
          "internalType": "uint256",
          "name": "",
          "type": "uint256"
        }
      ],
      "stateMutability": "view",
      "type": "function"
    },
    {
      "inputs": [
        {
          "internalType": "string",
          "name": "_restaurantName",
          "type": "string"
        },
        {
          "internalType": "string",
          "name": "_dishName",
          "type": "string"
        },
        {
          "internalType": "uint256",
          "name": "_dishPrice",
          "type": "uint256"
        },
        {
          "internalType": "uint256",
          "name": "_inventory",
          "type": "uint256"
        },
        {
          "internalType": "uint256",
          "name": "_carbonCredits",
          "type": "uint256"
        },
        {
          "internalType": "string",
          "name": "_mainComponent",
          "type": "string"
        },
        {
          "internalType": "string",
          "name": "_supplySource",
          "type": "string"
        }
      ],
      "name": "createDish",
      "outputs": [
        {
          "internalType": "uint256",
          "name": "",
          "type": "uint256"
        }
      ],
      "stateMutability": "nonpayable",
      "type": "function"
    },
    {
      "inputs": [
        {
          "internalType": "address",
          "name": "",
          "type": "address"
        }
      ],
      "name": "customerCarbonCredits",
      "outputs": [
        {
          "internalType": "uint256",
          "name": "",
          "type": "uint256"
        }
      ],
      "stateMutability": "view",
      "type": "function"
    },
    {
      "inputs": [
        {
          "internalType": "address",
          "name": "",
          "type": "address"
        }
      ],
      "name": "customerTier",
      "outputs": [
        {
          "internalType": "enum GreenDish.LoyaltyTier",
          "name": "",
          "type": "uint8"
        }
      ],
      "stateMutability": "view",
      "type": "function"
    },
    {
      "inputs": [],
      "name": "dishCount",
      "outputs": [
        {
          "internalType": "uint256",
          "name": "",
          "type": "uint256"
        }
      ],
      "stateMutability": "view",
      "type": "function"
    },
    {
      "inputs": [
        {
          "internalType": "uint256",
          "name": "",
          "type": "uint256"
        }
      ],
      "name": "dishes",
      "outputs": [
        {
          "internalType": "string",
          "name": "restaurantName",
          "type": "string"
        },
        {
          "internalType": "address",
          "name": "restaurantOwner",
          "type": "address"
        },
        {
          "internalType": "string",
          "name": "dishName",
          "type": "string"
        },
        {
          "internalType": "uint256",
          "name": "dishPrice",
          "type": "uint256"
        },
        {
          "internalType": "uint256",
          "name": "inventory",
          "type": "uint256"
        },
        {
          "internalType": "uint256",
          "name": "availableInventory",
          "type": "uint256"
        },
        {
          "internalType": "uint256",
          "name": "carbonCredits",
          "type": "uint256"
        },
        {
          "internalType": "string",
          "name": "mainComponent",
          "type": "string"
        },
        {
          "internalType": "string",
          "name": "supplySource",
          "type": "string"
        },
        {
          "internalType": "bool",
          "name": "isActive",
          "type": "bool"
        }
      ],
      "stateMutability": "view",
      "type": "function"
    },
    {
      "inputs": [
        {
          "internalType": "uint256",
          "name": "",
          "type": "uint256"
        },
        {
          "internalType": "address",
          "name": "",
          "type": "address"
        }
      ],
      "name": "dishesBought",
      "outputs": [
        {
          "internalType": "uint256",
          "name": "",
          "type": "uint256"
        }
      ],
      "stateMutability": "view",
      "type": "function"
    },
    {
      "inputs": [
        {
          "internalType": "address",
          "name": "customer",
          "type": "address"
        }
      ],
      "name": "getCustomerLoyaltyInfo",
      "outputs": [
        {
          "internalType": "enum GreenDish.LoyaltyTier",
          "name": "tier",
          "type": "uint8"
        },
        {
          "internalType": "uint256",
          "name": "multiplier",
          "type": "uint256"
        },
        {
          "internalType": "uint256",
          "name": "carbonCredits",
          "type": "uint256"
        },
        {
          "internalType": "uint256",
          "name": "nextTierThreshold",
          "type": "uint256"
        }
      ],
      "stateMutability": "view",
      "type": "function"
    },
    {
      "inputs": [
        {
          "internalType": "uint256",
          "name": "_dishId",
          "type": "uint256"
        }
      ],
      "name": "getDishInfo",
      "outputs": [
        {
          "internalType": "string",
          "name": "restaurantName",
          "type": "string"
        },
        {
          "internalType": "address",
          "name": "restaurantOwner",
          "type": "address"
        },
        {
          "internalType": "string",
          "name": "dishName",
          "type": "string"
        },
        {
          "internalType": "uint256",
          "name": "dishPrice",
          "type": "uint256"
        },
        {
          "internalType": "uint256",
          "name": "availableInventory",
          "type": "uint256"
        },
        {
          "internalType": "uint256",
          "name": "carbonCredits",
          "type": "uint256"
        },
        {
          "internalType": "string",
          "name": "mainComponent",
          "type": "string"
        },
        {
          "internalType": "string",
          "name": "supplySource",
          "type": "string"
        },
        {
          "internalType": "bool",
          "name": "isActive",
          "type": "bool"
        }
      ],
      "stateMutability": "view",
      "type": "function"
    },
    {
      "inputs": [
        {
          "internalType": "uint256",
          "name": "_dishId",
          "type": "uint256"
        }
      ],
      "name": "getDishPurchaseCount",
      "outputs": [
        {
          "internalType": "uint256",
          "name": "",
          "type": "uint256"
        }
      ],
      "stateMutability": "view",
      "type": "function"
    },
    {
      "inputs": [
        {
          "internalType": "address",
          "name": "_restaurantOwner",
          "type": "address"
        }
      ],
      "name": "getRestaurantDishes",
      "outputs": [
        {
          "internalType": "uint256[]",
          "name": "",
          "type": "uint256[]"
        }
      ],
      "stateMutability": "view",
      "type": "function"
    },
    {
      "inputs": [
        {
          "internalType": "address",
          "name": "restaurant",
          "type": "address"
        }
      ],
      "name": "getRestaurantLoyaltyInfo",
      "outputs": [
        {
          "internalType": "enum GreenDish.RestaurantTier",
          "name": "tier",
          "type": "uint8"
        },
        {
          "internalType": "uint256",
          "name": "multiplier",
          "type": "uint256"
        },
        {
          "internalType": "uint256",
          "name": "carbonImpact",
          "type": "uint256"
        },
        {
          "internalType": "uint256",
          "name": "nextTierThreshold",
          "type": "uint256"
        }
      ],
      "stateMutability": "view",
      "type": "function"
    },
    {
      "inputs": [
        {
          "internalType": "uint256",
          "name": "_dishId",
          "type": "uint256"
        },
        {
          "internalType": "uint256",
          "name": "_numberOfDishes",
          "type": "uint256"
        }
      ],
      "name": "purchaseDish",
      "outputs": [],
      "stateMutability": "payable",
      "type": "function"
    },
    {
      "inputs": [
        {
          "internalType": "address",
          "name": "",
          "type": "address"
        }
      ],
      "name": "restaurantCarbonImpact",
      "outputs": [
        {
          "internalType": "uint256",
          "name": "",
          "type": "uint256"
        }
      ],
      "stateMutability": "view",
      "type": "function"
    },
    {
      "inputs": [
        {
          "internalType": "address",
          "name": "",
          "type": "address"
        }
      ],
      "name": "restaurantTier",
      "outputs": [
        {
          "internalType": "enum GreenDish.RestaurantTier",
          "name": "",
          "type": "uint8"
        }
      ],
      "stateMutability": "view",
      "type": "function"
    },
    {
      "inputs": [
        {
          "internalType": "uint256",
          "name": "_dishId",
          "type": "uint256"
        },
        {
          "internalType": "bool",
          "name": "_isActive",
          "type": "bool"
        }
      ],
      "name": "setDishStatus",
      "outputs": [],
      "stateMutability": "nonpayable",
      "type": "function"
    },
    {
      "inputs": [
        {
          "internalType": "uint256",
          "name": "",
          "type": "uint256"
        }
      ],
      "name": "tierMultipliers",
      "outputs": [
        {
          "internalType": "uint256",
          "name": "",
          "type": "uint256"
        }
      ],
      "stateMutability": "view",
      "type": "function"
    },
    {
      "inputs": [],
      "name": "tokenContract",
      "outputs": [
        {
          "internalType": "contract IGreenCoin",
          "name": "",
          "type": "address"
        }
      ],
      "stateMutability": "view",
      "type": "function"
    },
    {
      "inputs": [],
      "name": "tokenInitialized",
      "outputs": [
        {
          "internalType": "bool",
          "name": "",
          "type": "bool"
        }
      ],
      "stateMutability": "view",
      "type": "function"
    },
    {
      "inputs": [],
      "name": "totalHistoricalCarbonCredits",
      "outputs": [
        {
          "internalType": "uint256",
          "name": "",
          "type": "uint256"
        }
      ],
      "stateMutability": "view",
      "type": "function"
    },
    {
      "inputs": [
        {
          "internalType": "uint256",
          "name": "_dishId",
          "type": "uint256"
        },
        {
          "internalType": "uint256",
          "name": "_newInventory",
          "type": "uint256"
        }
      ],
      "name": "updateInventory",
      "outputs": [],
      "stateMutability": "nonpayable",
      "type": "function"
    },
    {
      "stateMutability": "payable",
      "type": "receive"
    }
  ],
  "bytecode": "0x60806040526001600260146101000a81548160ff0219169083151502179055503480156200002c57600080fd5b5060405162004d6f38038062004d6f833981810160405281019062000052919062000345565b6000600260156101000a81548160ff02191690831515021790555060646005600080600381111562000089576200008862000377565b5b815260200190815260200160002081905550606e6005600060016003811115620000b857620000b762000377565b5b815260200190815260200160002081905550607d6005600060026003811115620000e757620000e662000377565b5b81526020019081526020016000208190555060966005600060038081111562000115576200011462000377565b5b815260200190815260200160002081905550600073ffffffffffffffffffffffffffffffffffffffff168173ffffffffffffffffffffffffffffffffffffffff160362000199576040517f08c379a0000000000000000000000000000000000000000000000000000000008152600401620001909062000407565b60405180910390fd5b60008190508073ffffffffffffffffffffffffffffffffffffffff166370a08231306040518263ffffffff1660e01b8152600401620001d991906200043a565b602060405180830381865afa9250505080156200021657506040513d601f19601f8201168201806040525081019062000213919062000492565b60015b62000258576040517f08c379a00000000000000000000000000000000000000000000000000000000081526004016200024f9062000514565b60405180910390fd5b81600260006101000a81548173ffffffffffffffffffffffffffffffffffffffff021916908373ffffffffffffffffffffffffffffffffffffffff1602179055507f9b64004f1a50e51d3c2809b6a8efbae432bfa889e0b4bf67f75e7db8ca816dba83604051620002ca91906200043a565b60405180910390a150505062000536565b600080fd5b600073ffffffffffffffffffffffffffffffffffffffff82169050919050565b60006200030d82620002e0565b9050919050565b6200031f8162000300565b81146200032b57600080fd5b50565b6000815190506200033f8162000314565b92915050565b6000602082840312156200035e576200035d620002db565b5b60006200036e848285016200032e565b91505092915050565b7f4e487b7100000000000000000000000000000000000000000000000000000000600052602160045260246000fd5b600082825260208201905092915050565b7f546f6b656e20616464726573732063616e6e6f74206265207a65726f00000000600082015250565b6000620003ef601c83620003a6565b9150620003fc82620003b7565b602082019050919050565b600060208201905081810360008301526200042281620003e0565b9050919050565b620004348162000300565b82525050565b600060208201905062000451600083018462000429565b92915050565b6000819050919050565b6200046c8162000457565b81146200047857600080fd5b50565b6000815190506200048c8162000461565b92915050565b600060208284031215620004ab57620004aa620002db565b5b6000620004bb848285016200047b565b91505092915050565b7f496e76616c696420746f6b656e20636f6e747261637400000000000000000000600082015250565b6000620004fc601683620003a6565b91506200050982620004c4565b602082019050919050565b600060208201905081810360008301526200052f81620004ed565b9050919050565b61482980620005466000396000f3fe60806040526004361061012e5760003560e01c8063579140f4116100ab578063bccbbacd1161006f578063bccbbacd1461045f578063cb48fd201461049c578063ccfb70d2146104c7578063f4938e0514610504578063fb0f48bf14610541578063fc72b1ed1461058157610135565b8063579140f4146103525780635bdba5dd1461037d5780636c34b846146103a8578063a1b0f38f146103e5578063a9b8a4411461042257610135565b806347b3d295116100f257806347b3d29514610265578063522547a8146102a2578063550a4c26146102cb57806355a373d61461030b578063564329091461033657610135565b8063014f6b5f14610137578063064fbd5a146101745780631cfc7cd0146101ba57806325bdb615146101f7578063322cfa0a1461023c57610135565b3661013557005b005b34801561014357600080fd5b5061015e60048036038101906101599190612dc8565b6105ac565b60405161016b9190612e17565b60405180910390f35b34801561018057600080fd5b5061019b60048036038101906101969190612e32565b6105d1565b6040516101b19a99989796959493929190612f19565b60405180910390f35b3480156101c657600080fd5b506101e160048036038101906101dc9190612fd1565b610872565b6040516101ee91906130bc565b60405180910390f35b34801561020357600080fd5b5061021e60048036038101906102199190612e32565b610aea565b604051610233999897969594939291906130de565b60405180910390f35b34801561024857600080fd5b50610263600480360381019061025e91906131b3565b610dfb565b005b34801561027157600080fd5b5061028c60048036038101906102879190612e32565b610fc1565b6040516102999190612e17565b60405180910390f35b3480156102ae57600080fd5b506102c960048036038101906102c491906131f3565b610fd9565b005b3480156102d757600080fd5b506102f260048036038101906102ed9190612fd1565b6112cf565b60405161030294939291906132aa565b60405180910390f35b34801561031757600080fd5b5061032061143e565b60405161032d919061334e565b60405180910390f35b610350600480360381019061034b91906131f3565b611464565b005b34801561035e57600080fd5b50610367611b84565b6040516103749190613369565b60405180910390f35b34801561038957600080fd5b50610392611b97565b60405161039f9190612e17565b60405180910390f35b3480156103b457600080fd5b506103cf60048036038101906103ca9190612fd1565b611b9d565b6040516103dc9190613384565b60405180910390f35b3480156103f157600080fd5b5061040c60048036038101906104079190612fd1565b611bbd565b6040516104199190612e17565b60405180910390f35b34801561042e57600080fd5b5061044960048036038101906104449190612e32565b611bd5565b6040516104569190612e17565b60405180910390f35b34801561046b57600080fd5b5061048660048036038101906104819190612fd1565b611c73565b60405161049391906133e7565b60405180910390f35b3480156104a857600080fd5b506104b1611c93565b6040516104be9190612e17565b60405180910390f35b3480156104d357600080fd5b506104ee60048036038101906104e99190612fd1565b611c99565b6040516104fb9190612e17565b60405180910390f35b34801561051057600080fd5b5061052b60048036038101906105269190613467565b611cb1565b6040516105389190612e17565b60405180910390f35b34801561054d57600080fd5b5061056860048036038101906105639190612fd1565b61210b565b604051610578949392919061358b565b60405180910390f35b34801561058d57600080fd5b5061059661227a565b6040516105a39190612e17565b60405180910390f35b6004602052816000526040600020602052806000526040600020600091509150505481565b60036020528060005260406000206000915090508060000180546105f4906135ff565b80601f0160208091040260200160405190810160405280929190818152602001828054610620906135ff565b801561066d5780601f106106425761010080835404028352916020019161066d565b820191906000526020600020905b81548152906001019060200180831161065057829003601f168201915b5050505050908060010160009054906101000a900473ffffffffffffffffffffffffffffffffffffffff16908060020180546106a8906135ff565b80601f01602080910402602001604051908101604052809291908181526020018280546106d4906135ff565b80156107215780601f106106f657610100808354040283529160200191610721565b820191906000526020600020905b81548152906001019060200180831161070457829003601f168201915b50505050509080600301549080600401549080600501549080600601549080600701805461074e906135ff565b80601f016020809104026020016040519081016040528092919081815260200182805461077a906135ff565b80156107c75780601f1061079c576101008083540402835291602001916107c7565b820191906000526020600020905b8154815290600101906020018083116107aa57829003601f168201915b5050505050908060080180546107dc906135ff565b80601f0160208091040260200160405190810160405280929190818152602001828054610808906135ff565b80156108555780601f1061082a57610100808354040283529160200191610855565b820191906000526020600020905b81548152906001019060200180831161083857829003601f168201915b5050505050908060090160009054906101000a900460ff1690508a565b6060600073ffffffffffffffffffffffffffffffffffffffff168273ffffffffffffffffffffffffffffffffffffffff16036108e3576040517f08c379a00000000000000000000000000000000000000000000000000000000081526004016108da9061367c565b60405180910390fd5b6000805b60015481101561097c578373ffffffffffffffffffffffffffffffffffffffff166003600083815260200190815260200160002060010160009054906101000a900473ffffffffffffffffffffffffffffffffffffffff1673ffffffffffffffffffffffffffffffffffffffff1603610969578180610965906136cb565b9250505b8080610974906136cb565b9150506108e7565b50600081036109d757600067ffffffffffffffff8111156109a05761099f613713565b5b6040519080825280602002602001820160405280156109ce5781602001602082028036833780820191505090505b50915050610ae5565b60008167ffffffffffffffff8111156109f3576109f2613713565b5b604051908082528060200260200182016040528015610a215781602001602082028036833780820191505090505b5090506000805b600154811015610add578573ffffffffffffffffffffffffffffffffffffffff166003600083815260200190815260200160002060010160009054906101000a900473ffffffffffffffffffffffffffffffffffffffff1673ffffffffffffffffffffffffffffffffffffffff1603610aca5780838381518110610aaf57610aae613742565b5b6020026020010181815250508180610ac6906136cb565b9250505b8080610ad5906136cb565b915050610a28565b508193505050505b919050565b606060006060600080600060608060006001548a10610b3e576040517f08c379a0000000000000000000000000000000000000000000000000000000008152600401610b35906137bd565b60405180910390fd5b6000600360008c81526020019081526020016000209050806000018160010160009054906101000a900473ffffffffffffffffffffffffffffffffffffffff168260020183600301548460050154856006015486600701876008018860090160009054906101000a900460ff16888054610bb7906135ff565b80601f0160208091040260200160405190810160405280929190818152602001828054610be3906135ff565b8015610c305780601f10610c0557610100808354040283529160200191610c30565b820191906000526020600020905b815481529060010190602001808311610c1357829003601f168201915b50505050509850868054610c43906135ff565b80601f0160208091040260200160405190810160405280929190818152602001828054610c6f906135ff565b8015610cbc5780601f10610c9157610100808354040283529160200191610cbc565b820191906000526020600020905b815481529060010190602001808311610c9f57829003601f168201915b50505050509650828054610ccf906135ff565b80601f0160208091040260200160405190810160405280929190818152602001828054610cfb906135ff565b8015610d485780601f10610d1d57610100808354040283529160200191610d48565b820191906000526020600020905b815481529060010190602001808311610d2b57829003601f168201915b50505050509250818054610d5b906135ff565b80601f0160208091040260200160405190810160405280929190818152602001828054610d87906135ff565b8015610dd45780601f10610da957610100808354040283529160200191610dd4565b820191906000526020600020905b815481529060010190602001808311610db757829003601f168201915b50505050509150995099509950995099509950995099509950509193959799909294969850565b816001548110610e40576040517f08c379a0000000000000000000000000000000000000000000000000000000008152600401610e37906137bd565b60405180910390fd5b6003600082815260200190815260200160002060010160009054906101000a900473ffffffffffffffffffffffffffffffffffffffff1673ffffffffffffffffffffffffffffffffffffffff163373ffffffffffffffffffffffffffffffffffffffff1614610ee4576040517f08c379a0000000000000000000000000000000000000000000000000000000008152600401610edb9061384f565b60405180910390fd5b60006003600085815260200190815260200160002090508215610f49576000816005015411610f48576040517f08c379a0000000000000000000000000000000000000000000000000000000008152600401610f3f906138e1565b60405180910390fd5b5b8215158160090160009054906101000a900460ff16151514610fbb57828160090160006101000a81548160ff0219169083151502179055507fbbd3c82937c5f5be6477c2cce6f22c760c71f04a6659b3e166b20d51e46ed09c8484604051610fb2929190613901565b60405180910390a15b50505050565b60056020528060005260406000206000915090505481565b81600154811061101e576040517f08c379a0000000000000000000000000000000000000000000000000000000008152600401611015906137bd565b60405180910390fd5b6003600082815260200190815260200160002060010160009054906101000a900473ffffffffffffffffffffffffffffffffffffffff1673ffffffffffffffffffffffffffffffffffffffff163373ffffffffffffffffffffffffffffffffffffffff16146110c2576040517f08c379a00000000000000000000000000000000000000000000000000000000081526004016110b99061384f565b60405180910390fd5b612710821115611107576040517f08c379a00000000000000000000000000000000000000000000000000000000081526004016110fe9061399c565b60405180910390fd5b600060036000858152602001908152602001600020905060008160050154826004015461113491906139bc565b905080841015611179576040517f08c379a000000000000000000000000000000000000000000000000000000000815260040161117090613a62565b60405180910390fd5b60008260090160009054906101000a900460ff16905084836004018190555081856111a491906139bc565b83600501819055507fc3da32029c7581e1ff0ac81dbfdec1e6ffa311377c403de5640ea8ca50d8bc4b86866040516111dd929190613a82565b60405180910390a1801580156111f7575060008360050154115b156112585760018360090160006101000a81548160ff0219169083151502179055507fbbd3c82937c5f5be6477c2cce6f22c760c71f04a6659b3e166b20d51e46ed09c86600160405161124b929190613901565b60405180910390a16112c7565b808015611269575060008360050154145b156112c65760008360090160006101000a81548160ff0219169083151502179055507fbbd3c82937c5f5be6477c2cce6f22c760c71f04a6659b3e166b20d51e46ed09c8660006040516112bd929190613901565b60405180910390a15b5b505050505050565b600080600080600760008673ffffffffffffffffffffffffffffffffffffffff1673ffffffffffffffffffffffffffffffffffffffff16815260200190815260200160002060009054906101000a900460ff1693506005600085600381111561133b5761133a613233565b5b8152602001908152602001600020549250600960008673ffffffffffffffffffffffffffffffffffffffff1673ffffffffffffffffffffffffffffffffffffffff168152602001908152602001600020549150600060038111156113a2576113a1613233565b5b8460038111156113b5576113b4613233565b5b036113c4576109c49050611437565b600160038111156113d8576113d7613233565b5b8460038111156113eb576113ea613233565b5b036113fa57611d4c9050611436565b6002600381111561140e5761140d613233565b5b84600381111561142157611420613233565b5b0361143057613a989050611435565b600090505b5b5b9193509193565b600260009054906101000a900473ffffffffffffffffffffffffffffffffffffffff1681565b600260159054906101000a900460ff16156114b4576040517f08c379a00000000000000000000000000000000000000000000000000000000081526004016114ab90613af7565b60405180910390fd5b6001600260156101000a81548160ff021916908315150217905550600260149054906101000a900460ff1661151e576040517f08c379a000000000000000000000000000000000000000000000000000000000815260040161151590613b63565b60405180910390fd5b6001548210611562576040517f08c379a0000000000000000000000000000000000000000000000000000000008152600401611559906137bd565b60405180910390fd5b600081116115a5576040517f08c379a000000000000000000000000000000000000000000000000000000000815260040161159c90613bcf565b60405180910390fd5b60006003600084815260200190815260200160002090508060010160009054906101000a900473ffffffffffffffffffffffffffffffffffffffff1673ffffffffffffffffffffffffffffffffffffffff163373ffffffffffffffffffffffffffffffffffffffff160361164e576040517f08c379a000000000000000000000000000000000000000000000000000000000815260040161164590613c61565b60405180910390fd5b8060090160009054906101000a900460ff1661169f576040517f08c379a000000000000000000000000000000000000000000000000000000000815260040161169690613ccd565b60405180910390fd5b80600501548211156116e6576040517f08c379a00000000000000000000000000000000000000000000000000000000081526004016116dd90613d39565b60405180910390fd5b60008282600301546116f89190613d59565b90508034101561173d576040517f08c379a000000000000000000000000000000000000000000000000000000000815260040161173490613de7565b60405180910390fd5b6000813461174b91906139bc565b9050600084846006015461175f9190613d59565b90508484600501600082825461177591906139bc565b92505081905550846004600088815260200190815260200160002060003373ffffffffffffffffffffffffffffffffffffffff1673ffffffffffffffffffffffffffffffffffffffff16815260200190815260200160002060008282546117dc9190613e07565b9250508190555080600860003373ffffffffffffffffffffffffffffffffffffffff1673ffffffffffffffffffffffffffffffffffffffff16815260200190815260200160002060008282546118329190613e07565b9250508190555080600960008660010160009054906101000a900473ffffffffffffffffffffffffffffffffffffffff1673ffffffffffffffffffffffffffffffffffffffff1673ffffffffffffffffffffffffffffffffffffffff16815260200190815260200160002060008282546118ac9190613e07565b92505081905550806000808282546118c49190613e07565b925050819055506118d43361227f565b6119018460010160009054906101000a900473ffffffffffffffffffffffffffffffffffffffff16612461565b60008460050154036119655760008460090160006101000a81548160ff0219169083151502179055507fbbd3c82937c5f5be6477c2cce6f22c760c71f04a6659b3e166b20d51e46ed09c86600060405161195c929190613901565b60405180910390a15b7f5daa85c8be73425de7036baeb87fadf1e6dd345b4850ccd764fe1cd8a47836b386338760405161199893929190613e3b565b60405180910390a160008111156119d9576119d833828660010160009054906101000a900473ffffffffffffffffffffffffffffffffffffffff16612643565b5b60008460010160009054906101000a900473ffffffffffffffffffffffffffffffffffffffff1673ffffffffffffffffffffffffffffffffffffffff1684604051611a2390613ea3565b60006040518083038185875af1925050503d8060008114611a60576040519150601f19603f3d011682016040523d82523d6000602084013e611a65565b606091505b5050905080611aa9576040517f08c379a0000000000000000000000000000000000000000000000000000000008152600401611aa090613f2a565b60405180910390fd5b6000831115611b605760003373ffffffffffffffffffffffffffffffffffffffff1684604051611ad890613ea3565b60006040518083038185875af1925050503d8060008114611b15576040519150601f19603f3d011682016040523d82523d6000602084013e611b1a565b606091505b5050905080611b5e576040517f08c379a0000000000000000000000000000000000000000000000000000000008152600401611b5590613f96565b60405180910390fd5b505b50505050506000600260156101000a81548160ff0219169083151502179055505050565b600260149054906101000a900460ff1681565b60005481565b60076020528060005260406000206000915054906101000a900460ff1681565b60086020528060005260406000206000915090505481565b60006001548210611c1b576040517f08c379a0000000000000000000000000000000000000000000000000000000008152600401611c12906137bd565b60405180910390fd5b6004600083815260200190815260200160002060003373ffffffffffffffffffffffffffffffffffffffff1673ffffffffffffffffffffffffffffffffffffffff168152602001908152602001600020549050919050565b60066020528060005260406000206000915054906101000a900460ff1681565b60015481565b60096020528060005260406000206000915090505481565b6000808c8c9050118015611cc9575060328c8c905011155b611d08576040517f08c379a0000000000000000000000000000000000000000000000000000000008152600401611cff90614028565b60405180910390fd5b60008a8a9050118015611d1f575060328a8a905011155b611d5e576040517f08c379a0000000000000000000000000000000000000000000000000000000008152600401611d55906140ba565b60405180910390fd5b60008811611da1576040517f08c379a0000000000000000000000000000000000000000000000000000000008152600401611d989061414c565b60405180910390fd5b612710871115611de6576040517f08c379a0000000000000000000000000000000000000000000000000000000008152600401611ddd9061399c565b60405180910390fd5b6064861115611e2a576040517f08c379a0000000000000000000000000000000000000000000000000000000008152600401611e21906141b8565b60405180910390fd5b600060015490506040518061014001604052808e8e8080601f016020809104026020016040519081016040528093929190818152602001838380828437600081840152601f19601f8201169050808301925050505050505081526020013373ffffffffffffffffffffffffffffffffffffffff1681526020018c8c8080601f016020809104026020016040519081016040528093929190818152602001838380828437600081840152601f19601f8201169050808301925050505050505081526020018a815260200189815260200189815260200188815260200187878080601f016020809104026020016040519081016040528093929190818152602001838380828437600081840152601f19601f82011690508083019250505050505050815260200185858080601f016020809104026020016040519081016040528093929190818152602001838380828437600081840152601f19601f82011690508083019250505050505050815260200160011515815250600360008381526020019081526020016000206000820151816000019081611fc8919061437a565b5060208201518160010160006101000a81548173ffffffffffffffffffffffffffffffffffffffff021916908373ffffffffffffffffffffffffffffffffffffffff1602179055506040820151816002019081612025919061437a565b50606082015181600301556080820151816004015560a0820151816005015560c0820151816006015560e0820151816007019081612063919061437a565b5061010082015181600801908161207a919061437a565b506101208201518160090160006101000a81548160ff021916908315150217905550905050600160008154809291906120b2906136cb565b91905055507f7a247b223972343e4ed963e95df3d9d14979da09004c70d85f0681faa28e30a6818e8e338f8f6040516120f096959493929190614488565b60405180910390a1809150509b9a5050505050505050505050565b600080600080600660008673ffffffffffffffffffffffffffffffffffffffff1673ffffffffffffffffffffffffffffffffffffffff16815260200190815260200160002060009054906101000a900460ff1693506005600085600381111561217757612176613233565b5b8152602001908152602001600020549250600860008673ffffffffffffffffffffffffffffffffffffffff1673ffffffffffffffffffffffffffffffffffffffff168152602001908152602001600020549150600060038111156121de576121dd613233565b5b8460038111156121f1576121f0613233565b5b03612200576101f49050612273565b6001600381111561221457612213613233565b5b84600381111561222757612226613233565b5b03612236576107d09050612272565b6002600381111561224a57612249613233565b5b84600381111561225d5761225c613233565b5b0361226c576113889050612271565b600090505b5b5b9193509193565b600a81565b6000600860008373ffffffffffffffffffffffffffffffffffffffff1673ffffffffffffffffffffffffffffffffffffffff1681526020019081526020016000205490506000600660008473ffffffffffffffffffffffffffffffffffffffff1673ffffffffffffffffffffffffffffffffffffffff16815260200190815260200160002060009054906101000a900460ff169050600061138883106123285760039050612353565b6107d0831061233a5760029050612352565b6101f4831061234c5760019050612351565b600090505b5b5b81600381111561236657612365613233565b5b81600381111561237957612378613233565b5b1461245b5780600660008673ffffffffffffffffffffffffffffffffffffffff1673ffffffffffffffffffffffffffffffffffffffff16815260200190815260200160002060006101000a81548160ff021916908360038111156123e0576123df613233565b5b02179055508373ffffffffffffffffffffffffffffffffffffffff167ff5f22a8efbfd06912dda537ae6685ab13b9b3c6441f1bc4e1ae6b9d94b90a1da826005600085600381111561243557612434613233565b5b8152602001908152602001600020546040516124529291906144df565b60405180910390a25b50505050565b6000600960008373ffffffffffffffffffffffffffffffffffffffff1673ffffffffffffffffffffffffffffffffffffffff1681526020019081526020016000205490506000600760008473ffffffffffffffffffffffffffffffffffffffff1673ffffffffffffffffffffffffffffffffffffffff16815260200190815260200160002060009054906101000a900460ff1690506000613a98831061250a5760039050612535565b611d4c831061251c5760029050612534565b6109c4831061252e5760019050612533565b600090505b5b5b81600381111561254857612547613233565b5b81600381111561255b5761255a613233565b5b1461263d5780600760008673ffffffffffffffffffffffffffffffffffffffff1673ffffffffffffffffffffffffffffffffffffffff16815260200190815260200160002060006101000a81548160ff021916908360038111156125c2576125c1613233565b5b02179055508373ffffffffffffffffffffffffffffffffffffffff167f94d1ee6f5e2599adae81c958c64c220324620ad2dc8c3cd9026d89511edbcbc6826005600085600381111561261757612616613233565b5b815260200190815260200160002054604051612634929190614508565b60405180910390a25b50505050565b600260149054906101000a900460ff16612692576040517f08c379a000000000000000000000000000000000000000000000000000000000815260040161268990613b63565b60405180910390fd5b600073ffffffffffffffffffffffffffffffffffffffff168373ffffffffffffffffffffffffffffffffffffffff1603612701576040517f08c379a00000000000000000000000000000000000000000000000000000000081526004016126f89061457d565b60405180910390fd5b600073ffffffffffffffffffffffffffffffffffffffff168173ffffffffffffffffffffffffffffffffffffffff1603612770576040517f08c379a00000000000000000000000000000000000000000000000000000000081526004016127679061460f565b60405180910390fd5b600082116127b3576040517f08c379a00000000000000000000000000000000000000000000000000000000081526004016127aa9061467b565b60405180910390fd5b600060056000600660008773ffffffffffffffffffffffffffffffffffffffff1673ffffffffffffffffffffffffffffffffffffffff16815260200190815260200160002060009054906101000a900460ff16600381111561281857612817613233565b5b8152602001908152602001600020549050600060056000600760008673ffffffffffffffffffffffffffffffffffffffff1673ffffffffffffffffffffffffffffffffffffffff16815260200190815260200160002060009054906101000a900460ff16600381111561288e5761288d613233565b5b815260200190815260200160002054905060006064670de0b6b3a7640000600a876128b99190613d59565b6128c39190613d59565b6128cd91906146ca565b9050600080541115612940576000620f4240600054106128f2576207a1209050612914565b620f42406207a1206000546129079190613d59565b61291191906146ca565b90505b620f424081620f424061292791906139bc565b836129329190613d59565b61293c91906146ca565b9150505b6000612710846050846129539190613d59565b61295d9190613d59565b61296791906146ca565b905060006127108460148561297c9190613d59565b6129869190613d59565b61299091906146ca565b90506000821480156129a25750600081145b156129b1575050505050612d25565b6000600260009054906101000a900473ffffffffffffffffffffffffffffffffffffffff1673ffffffffffffffffffffffffffffffffffffffff166370a08231306040518263ffffffff1660e01b8152600401612a0e91906146fb565b602060405180830381865afa158015612a2b573d6000803e3d6000fd5b505050506040513d601f19601f82011682018060405250810190612a4f919061472b565b905060008103612aa9577f6cfdc9d43df83155948a571505bac4757389d64d386be468f9b18c0373153c508284612a869190613e07565b6000604051612a96929190614793565b60405180910390a1505050505050612d25565b808284612ab69190613e07565b1115612b4c577f6cfdc9d43df83155948a571505bac4757389d64d386be468f9b18c0373153c508284612ae99190613e07565b82604051612af8929190613a82565b60405180910390a160008284612b0e9190613e07565b90506000811115612b3757808483612b269190613d59565b612b3091906146ca565b9350612b3c565b600093505b8382612b4891906139bc565b9250505b6000831115612c3557600260009054906101000a900473ffffffffffffffffffffffffffffffffffffffff1673ffffffffffffffffffffffffffffffffffffffff166369ddd247308b866040518463ffffffff1660e01b8152600401612bb4939291906147bc565b600060405180830381600087803b158015612bce57600080fd5b505af1158015612be2573d6000803e3d6000fd5b505050508873ffffffffffffffffffffffffffffffffffffffff167f0d3ecba324ef5a283bcbd5d1a966cab18661432ab3575740c588f7a0144b0dfa84604051612c2c9190612e17565b60405180910390a25b6000821115612d1e57600260009054906101000a900473ffffffffffffffffffffffffffffffffffffffff1673ffffffffffffffffffffffffffffffffffffffff166369ddd2473089856040518463ffffffff1660e01b8152600401612c9d939291906147bc565b600060405180830381600087803b158015612cb757600080fd5b505af1158015612ccb573d6000803e3d6000fd5b505050508673ffffffffffffffffffffffffffffffffffffffff167f0d3ecba324ef5a283bcbd5d1a966cab18661432ab3575740c588f7a0144b0dfa83604051612d159190612e17565b60405180910390a25b5050505050505b505050565b600080fd5b600080fd5b6000819050919050565b612d4781612d34565b8114612d5257600080fd5b50565b600081359050612d6481612d3e565b92915050565b600073ffffffffffffffffffffffffffffffffffffffff82169050919050565b6000612d9582612d6a565b9050919050565b612da581612d8a565b8114612db057600080fd5b50565b600081359050612dc281612d9c565b92915050565b60008060408385031215612ddf57612dde612d2a565b5b6000612ded85828601612d55565b9250506020612dfe85828601612db3565b9150509250929050565b612e1181612d34565b82525050565b6000602082019050612e2c6000830184612e08565b92915050565b600060208284031215612e4857612e47612d2a565b5b6000612e5684828501612d55565b91505092915050565b600081519050919050565b600082825260208201905092915050565b60005b83811015612e99578082015181840152602081019050612e7e565b60008484015250505050565b6000601f19601f8301169050919050565b6000612ec182612e5f565b612ecb8185612e6a565b9350612edb818560208601612e7b565b612ee481612ea5565b840191505092915050565b612ef881612d8a565b82525050565b60008115159050919050565b612f1381612efe565b82525050565b6000610140820190508181036000830152612f34818d612eb6565b9050612f43602083018c612eef565b8181036040830152612f55818b612eb6565b9050612f64606083018a612e08565b612f716080830189612e08565b612f7e60a0830188612e08565b612f8b60c0830187612e08565b81810360e0830152612f9d8186612eb6565b9050818103610100830152612fb28185612eb6565b9050612fc2610120830184612f0a565b9b9a5050505050505050505050565b600060208284031215612fe757612fe6612d2a565b5b6000612ff584828501612db3565b91505092915050565b600081519050919050565b600082825260208201905092915050565b6000819050602082019050919050565b61303381612d34565b82525050565b6000613045838361302a565b60208301905092915050565b6000602082019050919050565b600061306982612ffe565b6130738185613009565b935061307e8361301a565b8060005b838110156130af5781516130968882613039565b97506130a183613051565b925050600181019050613082565b5085935050505092915050565b600060208201905081810360008301526130d6818461305e565b905092915050565b60006101208201905081810360008301526130f9818c612eb6565b9050613108602083018b612eef565b818103604083015261311a818a612eb6565b90506131296060830189612e08565b6131366080830188612e08565b61314360a0830187612e08565b81810360c08301526131558186612eb6565b905081810360e08301526131698185612eb6565b9050613179610100830184612f0a565b9a9950505050505050505050565b61319081612efe565b811461319b57600080fd5b50565b6000813590506131ad81613187565b92915050565b600080604083850312156131ca576131c9612d2a565b5b60006131d885828601612d55565b92505060206131e98582860161319e565b9150509250929050565b6000806040838503121561320a57613209612d2a565b5b600061321885828601612d55565b925050602061322985828601612d55565b9150509250929050565b7f4e487b7100000000000000000000000000000000000000000000000000000000600052602160045260246000fd5b6004811061327357613272613233565b5b50565b600081905061328482613262565b919050565b600061329482613276565b9050919050565b6132a481613289565b82525050565b60006080820190506132bf600083018761329b565b6132cc6020830186612e08565b6132d96040830185612e08565b6132e66060830184612e08565b95945050505050565b6000819050919050565b600061331461330f61330a84612d6a565b6132ef565b612d6a565b9050919050565b6000613326826132f9565b9050919050565b60006133388261331b565b9050919050565b6133488161332d565b82525050565b6000602082019050613363600083018461333f565b92915050565b600060208201905061337e6000830184612f0a565b92915050565b6000602082019050613399600083018461329b565b92915050565b600481106133b0576133af613233565b5b50565b60008190506133c18261339f565b919050565b60006133d1826133b3565b9050919050565b6133e1816133c6565b82525050565b60006020820190506133fc60008301846133d8565b92915050565b600080fd5b600080fd5b600080fd5b60008083601f84011261342757613426613402565b5b8235905067ffffffffffffffff81111561344457613443613407565b5b6020830191508360018202830111156134605761345f61340c565b5b9250929050565b600080600080600080600080600080600060e08c8e03121561348c5761348b612d2a565b5b60008c013567ffffffffffffffff8111156134aa576134a9612d2f565b5b6134b68e828f01613411565b9b509b505060208c013567ffffffffffffffff8111156134d9576134d8612d2f565b5b6134e58e828f01613411565b995099505060406134f88e828f01612d55565b97505060606135098e828f01612d55565b965050608061351a8e828f01612d55565b95505060a08c013567ffffffffffffffff81111561353b5761353a612d2f565b5b6135478e828f01613411565b945094505060c08c013567ffffffffffffffff81111561356a57613569612d2f565b5b6135768e828f01613411565b92509250509295989b509295989b9093969950565b60006080820190506135a060008301876133d8565b6135ad6020830186612e08565b6135ba6040830185612e08565b6135c76060830184612e08565b95945050505050565b7f4e487b7100000000000000000000000000000000000000000000000000000000600052602260045260246000fd5b6000600282049050600182168061361757607f821691505b60208210810361362a576136296135d0565b5b50919050565b7f496e76616c69642072657374617572616e74206f776e65722061646472657373600082015250565b6000613666602083612e6a565b915061367182613630565b602082019050919050565b6000602082019050818103600083015261369581613659565b9050919050565b7f4e487b7100000000000000000000000000000000000000000000000000000000600052601160045260246000fd5b60006136d682612d34565b91507fffffffffffffffffffffffffffffffffffffffffffffffffffffffffffffffff82036137085761370761369c565b5b600182019050919050565b7f4e487b7100000000000000000000000000000000000000000000000000000000600052604160045260246000fd5b7f4e487b7100000000000000000000000000000000000000000000000000000000600052603260045260246000fd5b7f4469736820646f6573206e6f7420657869737400000000000000000000000000600082015250565b60006137a7601383612e6a565b91506137b282613771565b602082019050919050565b600060208201905081810360008301526137d68161379a565b9050919050565b7f4f6e6c79207468652072657374617572616e74206f776e65722063616e20636160008201527f6c6c20746869732066756e6374696f6e00000000000000000000000000000000602082015250565b6000613839603083612e6a565b9150613844826137dd565b604082019050919050565b600060208201905081810360008301526138688161382c565b9050919050565b7f43616e6e6f7420616374697661746520646973682077697468206e6f2061766160008201527f696c61626c6520696e76656e746f727900000000000000000000000000000000602082015250565b60006138cb603083612e6a565b91506138d68261386f565b604082019050919050565b600060208201905081810360008301526138fa816138be565b9050919050565b60006040820190506139166000830185612e08565b6139236020830184612f0a565b9392505050565b7f496e76656e746f72792063616e6e6f742065786365656420313030303020756e60008201527f6974730000000000000000000000000000000000000000000000000000000000602082015250565b6000613986602383612e6a565b91506139918261392a565b604082019050919050565b600060208201905081810360008301526139b581613979565b9050919050565b60006139c782612d34565b91506139d283612d34565b92508282039050818111156139ea576139e961369c565b5b92915050565b7f4e657720696e76656e746f7279206d75737420636f76657220616c726561647960008201527f20736f6c64206469736865730000000000000000000000000000000000000000602082015250565b6000613a4c602c83612e6a565b9150613a57826139f0565b604082019050919050565b60006020820190508181036000830152613a7b81613a3f565b9050919050565b6000604082019050613a976000830185612e08565b613aa46020830184612e08565b9392505050565b7f5265656e7472616e637947756172643a207265656e7472616e742063616c6c00600082015250565b6000613ae1601f83612e6a565b9150613aec82613aab565b602082019050919050565b60006020820190508181036000830152613b1081613ad4565b9050919050565b7f546f6b656e20636f6e7472616374206e6f7420696e697469616c697a65640000600082015250565b6000613b4d601e83612e6a565b9150613b5882613b17565b602082019050919050565b60006020820190508181036000830152613b7c81613b40565b9050919050565b7f4d757374207075726368617365206174206c65617374206f6e65206469736800600082015250565b6000613bb9601f83612e6a565b9150613bc482613b83565b602082019050919050565b60006020820190508181036000830152613be881613bac565b9050919050565b7f52657374617572616e74206f776e65722063616e6e6f7420707572636861736560008201527f207468656972206f776e20646973680000000000000000000000000000000000602082015250565b6000613c4b602f83612e6a565b9150613c5682613bef565b604082019050919050565b60006020820190508181036000830152613c7a81613c3e565b9050919050565b7f546869732064697368206973206e6f7420617661696c61626c65000000000000600082015250565b6000613cb7601a83612e6a565b9150613cc282613c81565b602082019050919050565b60006020820190508181036000830152613ce681613caa565b9050919050565b7f4e6f7420656e6f7567682064697368657320617661696c61626c650000000000600082015250565b6000613d23601b83612e6a565b9150613d2e82613ced565b602082019050919050565b60006020820190508181036000830152613d5281613d16565b9050919050565b6000613d6482612d34565b9150613d6f83612d34565b9250828202613d7d81612d34565b91508282048414831517613d9457613d9361369c565b5b5092915050565b7f496e73756666696369656e742066756e64730000000000000000000000000000600082015250565b6000613dd1601283612e6a565b9150613ddc82613d9b565b602082019050919050565b60006020820190508181036000830152613e0081613dc4565b9050919050565b6000613e1282612d34565b9150613e1d83612d34565b9250828201905080821115613e3557613e3461369c565b5b92915050565b6000606082019050613e506000830186612e08565b613e5d6020830185612eef565b613e6a6040830184612e08565b949350505050565b600081905092915050565b50565b6000613e8d600083613e72565b9150613e9882613e7d565b600082019050919050565b6000613eae82613e80565b9150819050919050565b7f5061796d656e7420746f2072657374617572616e74206f776e6572206661696c60008201527f6564000000000000000000000000000000000000000000000000000000000000602082015250565b6000613f14602283612e6a565b9150613f1f82613eb8565b604082019050919050565b60006020820190508181036000830152613f4381613f07565b9050919050565b7f526566756e64206661696c656400000000000000000000000000000000000000600082015250565b6000613f80600d83612e6a565b9150613f8b82613f4a565b602082019050919050565b60006020820190508181036000830152613faf81613f73565b9050919050565b7f52657374617572616e74206e616d65206d757374206265206265747765656e2060008201527f3120616e64203530206368617261637465727300000000000000000000000000602082015250565b6000614012603383612e6a565b915061401d82613fb6565b604082019050919050565b6000602082019050818103600083015261404181614005565b9050919050565b7f44697368206e616d65206d757374206265206265747765656e203120616e642060008201527f3530206368617261637465727300000000000000000000000000000000000000602082015250565b60006140a4602d83612e6a565b91506140af82614048565b604082019050919050565b600060208201905081810360008301526140d381614097565b9050919050565b7f44697368207072696365206d7573742062652067726561746572207468616e2060008201527f7a65726f00000000000000000000000000000000000000000000000000000000602082015250565b6000614136602483612e6a565b9150614141826140da565b604082019050919050565b6000602082019050818103600083015261416581614129565b9050919050565b7f436172626f6e20637265646974732063616e6e6f742065786365656420313030600082015250565b60006141a2602083612e6a565b91506141ad8261416c565b602082019050919050565b600060208201905081810360008301526141d181614195565b9050919050565b60008190508160005260206000209050919050565b60006020601f8301049050919050565b600082821b905092915050565b60006008830261423a7fffffffffffffffffffffffffffffffffffffffffffffffffffffffffffffffff826141fd565b61424486836141fd565b95508019841693508086168417925050509392505050565b600061427761427261426d84612d34565b6132ef565b612d34565b9050919050565b6000819050919050565b6142918361425c565b6142a561429d8261427e565b84845461420a565b825550505050565b600090565b6142ba6142ad565b6142c5818484614288565b505050565b5b818110156142e9576142de6000826142b2565b6001810190506142cb565b5050565b601f82111561432e576142ff816141d8565b614308846141ed565b81016020851015614317578190505b61432b614323856141ed565b8301826142ca565b50505b505050565b600082821c905092915050565b600061435160001984600802614333565b1980831691505092915050565b600061436a8383614340565b9150826002028217905092915050565b61438382612e5f565b67ffffffffffffffff81111561439c5761439b613713565b5b6143a682546135ff565b6143b18282856142ed565b600060209050601f8311600181146143e457600084156143d2578287015190505b6143dc858261435e565b865550614444565b601f1984166143f2866141d8565b60005b8281101561441a578489015182556001820191506020850194506020810190506143f5565b868310156144375784890151614433601f891682614340565b8355505b6001600288020188555050505b505050505050565b82818337600083830152505050565b60006144678385612e6a565b935061447483858461444c565b61447d83612ea5565b840190509392505050565b600060808201905061449d6000830189612e08565b81810360208301526144b081878961445b565b90506144bf6040830186612eef565b81810360608301526144d281848661445b565b9050979650505050505050565b60006040820190506144f460008301856133d8565b6145016020830184612e08565b9392505050565b600060408201905061451d600083018561329b565b61452a6020830184612e08565b9392505050565b7f43616e6e6f7420726577617264207a65726f2061646472657373000000000000600082015250565b6000614567601a83612e6a565b915061457282614531565b602082019050919050565b600060208201905081810360008301526145968161455a565b9050919050565b7f52657374617572616e742063616e6e6f74206265207a65726f2061646472657360008201527f7300000000000000000000000000000000000000000000000000000000000000602082015250565b60006145f9602183612e6a565b91506146048261459d565b604082019050919050565b60006020820190508181036000830152614628816145ec565b9050919050565b7f4e6f20636172626f6e206372656469747320746f207265776172640000000000600082015250565b6000614665601b83612e6a565b91506146708261462f565b602082019050919050565b6000602082019050818103600083015261469481614658565b9050919050565b7f4e487b7100000000000000000000000000000000000000000000000000000000600052601260045260246000fd5b60006146d582612d34565b91506146e083612d34565b9250826146f0576146ef61469b565b5b828204905092915050565b60006020820190506147106000830184612eef565b92915050565b60008151905061472581612d3e565b92915050565b60006020828403121561474157614740612d2a565b5b600061474f84828501614716565b91505092915050565b6000819050919050565b600061477d61477861477384614758565b6132ef565b612d34565b9050919050565b61478d81614762565b82525050565b60006040820190506147a86000830185612e08565b6147b56020830184614784565b9392505050565b60006060820190506147d16000830186612eef565b6147de6020830185612eef565b6147eb6040830184612e08565b94935050505056fea2646970667358221220154873569f43ff29d0f6794ee7e840d85a28639fa97a6110ea5e52eccef9e82a64736f6c63430008140033",
  "linkReferences": {},
  "deployedLinkReferences": {}
}