{
  "_format": "hh-sol-artifact-1",
  "contractName": "GreenCoin",
  "sourceName": "contracts/token.sol",
  "abi": [
    {
      "inputs": [],
      "stateMutability": "nonpayable",
      "type": "constructor"
    },
    {
      "anonymous": false,
      "inputs": [
        {
          "indexed": true,
          "internalType": "address",
          "name": "owner",
          "type": "address"
        },
        {
          "indexed": true,
          "internalType": "address",
          "name": "spender",
          "type": "address"
        },
        {
          "indexed": false,
          "internalType": "uint256",
          "name": "value",
          "type": "uint256"
        }
      ],
      "name": "Approval",
      "type": "event"
    },
    {
      "anonymous": false,
      "inputs": [
        {
          "indexed": true,
          "internalType": "address",
          "name": "from",
          "type": "address"
        },
        {
          "indexed": true,
          "internalType": "address",
          "name": "to",
          "type": "address"
        },
        {
          "indexed": false,
          "internalType": "uint256",
          "name": "value",
          "type": "uint256"
        }
      ],
      "name": "Transfer",
      "type": "event"
    },
    {
      "stateMutability": "payable",
      "type": "fallback"
    },
    {
      "inputs": [],
      "name": "MAX_SUPPLY",
      "outputs": [
        {
          "internalType": "uint256",
          "name": "",
          "type": "uint256"
        }
      ],
      "stateMutability": "view",
      "type": "function"
    },
    {
      "inputs": [
        {
          "internalType": "address",
          "name": "owner",
          "type": "address"
        },
        {
          "internalType": "address",
          "name": "spender",
          "type": "address"
        }
      ],
      "name": "allowance",
      "outputs": [
        {
          "internalType": "uint256",
          "name": "",
          "type": "uint256"
        }
      ],
      "stateMutability": "view",
      "type": "function"
    },
    {
      "inputs": [
        {
          "internalType": "address",
          "name": "",
          "type": "address"
        },
        {
          "internalType": "address",
          "name": "",
          "type": "address"
        }
      ],
      "name": "allowances",
      "outputs": [
        {
          "internalType": "uint256",
          "name": "",
          "type": "uint256"
        }
      ],
      "stateMutability": "view",
      "type": "function"
    },
    {
      "inputs": [
        {
          "internalType": "address",
          "name": "spender",
          "type": "address"
        },
        {
          "internalType": "uint256",
          "name": "amount",
          "type": "uint256"
        }
      ],
      "name": "approve",
      "outputs": [
        {
          "internalType": "bool",
          "name": "",
          "type": "bool"
        }
      ],
      "stateMutability": "nonpayable",
      "type": "function"
    },
    {
      "inputs": [
        {
          "internalType": "address",
          "name": "account",
          "type": "address"
        }
      ],
      "name": "balanceOf",
      "outputs": [
        {
          "internalType": "uint256",
          "name": "",
          "type": "uint256"
        }
      ],
      "stateMutability": "view",
      "type": "function"
    },
    {
      "inputs": [
        {
          "internalType": "address",
          "name": "",
          "type": "address"
        }
      ],
      "name": "balances",
      "outputs": [
        {
          "internalType": "uint256",
          "name": "",
          "type": "uint256"
        }
      ],
      "stateMutability": "view",
      "type": "function"
    },
    {
      "inputs": [],
      "name": "decimals",
      "outputs": [
        {
          "internalType": "uint8",
          "name": "",
          "type": "uint8"
        }
      ],
      "stateMutability": "view",
      "type": "function"
    },
    {
      "inputs": [],
      "name": "name",
      "outputs": [
        {
          "internalType": "string",
          "name": "",
          "type": "string"
        }
      ],
      "stateMutability": "view",
      "type": "function"
    },
    {
      "inputs": [],
      "name": "symbol",
      "outputs": [
        {
          "internalType": "string",
          "name": "",
          "type": "string"
        }
      ],
      "stateMutability": "view",
      "type": "function"
    },
    {
      "inputs": [],
      "name": "totalSupply",
      "outputs": [
        {
          "internalType": "uint256",
          "name": "",
          "type": "uint256"
        }
      ],
      "stateMutability": "view",
      "type": "function"
    },
    {
      "inputs": [
        {
          "internalType": "address",
          "name": "recipient",
          "type": "address"
        },
        {
          "internalType": "uint256",
          "name": "amount",
          "type": "uint256"
        }
      ],
      "name": "transfer",
      "outputs": [
        {
          "internalType": "bool",
          "name": "",
          "type": "bool"
        }
      ],
      "stateMutability": "nonpayable",
      "type": "function"
    },
    {
      "inputs": [
        {
          "internalType": "address",
          "name": "sender",
          "type": "address"
        },
        {
          "internalType": "address",
          "name": "recipient",
          "type": "address"
        },
        {
          "internalType": "uint256",
          "name": "amount",
          "type": "uint256"
        }
      ],
      "name": "transferFrom",
      "outputs": [
        {
          "internalType": "bool",
          "name": "",
          "type": "bool"
        }
      ],
      "stateMutability": "nonpayable",
      "type": "function"
    },
    {
      "stateMutability": "payable",
      "type": "receive"
    }
  ],
  "bytecode": "0x60806040526040518060400160405280600981526020017f477265656e436f696e0000000000000000000000000000000000000000000000815250600090816200004a91906200040d565b506040518060400160405280600381526020017f4752430000000000000000000000000000000000000000000000000000000000815250600190816200009191906200040d565b506012600260006101000a81548160ff021916908360ff160217905550348015620000bb57600080fd5b5069d3c21bcecceda100000060038190555069d3c21bcecceda1000000600460003373ffffffffffffffffffffffffffffffffffffffff1673ffffffffffffffffffffffffffffffffffffffff168152602001908152602001600020819055503373ffffffffffffffffffffffffffffffffffffffff16600073ffffffffffffffffffffffffffffffffffffffff167fddf252ad1be2c89b69c2b068fc378daa952ba7f163c4a11628f55a4df523b3ef69d3c21bcecceda100000060405162000185919062000505565b60405180910390a362000522565b600081519050919050565b7f4e487b7100000000000000000000000000000000000000000000000000000000600052604160045260246000fd5b7f4e487b7100000000000000000000000000000000000000000000000000000000600052602260045260246000fd5b600060028204905060018216806200021557607f821691505b6020821081036200022b576200022a620001cd565b5b50919050565b60008190508160005260206000209050919050565b60006020601f8301049050919050565b600082821b905092915050565b600060088302620002957fffffffffffffffffffffffffffffffffffffffffffffffffffffffffffffffff8262000256565b620002a1868362000256565b95508019841693508086168417925050509392505050565b6000819050919050565b6000819050919050565b6000620002ee620002e8620002e284620002b9565b620002c3565b620002b9565b9050919050565b6000819050919050565b6200030a83620002cd565b620003226200031982620002f5565b84845462000263565b825550505050565b600090565b620003396200032a565b62000346818484620002ff565b505050565b5b818110156200036e57620003626000826200032f565b6001810190506200034c565b5050565b601f821115620003bd57620003878162000231565b620003928462000246565b81016020851015620003a2578190505b620003ba620003b18562000246565b8301826200034b565b50505b505050565b600082821c905092915050565b6000620003e260001984600802620003c2565b1980831691505092915050565b6000620003fd8383620003cf565b9150826002028217905092915050565b620004188262000193565b67ffffffffffffffff8111156200043457620004336200019e565b5b620004408254620001fc565b6200044d82828562000372565b600060209050601f83116001811462000485576000841562000470578287015190505b6200047c8582620003ef565b865550620004ec565b601f198416620004958662000231565b60005b82811015620004bf5784890151825560018201915060208501945060208101905062000498565b86831015620004df5784890151620004db601f891682620003cf565b8355505b6001600288020188555050505b505050505050565b620004ff81620002b9565b82525050565b60006020820190506200051c6000830184620004f4565b92915050565b61123480620005326000396000f3fe6080604052600436106100ab5760003560e01c806332cb6b0c1161006457806332cb6b0c146101ec57806355b6ed5c1461021757806370a082311461025457806395d89b4114610291578063a9059cbb146102bc578063dd62ed3e146102f9576100b2565b806306fdde03146100b4578063095ea7b3146100df57806318160ddd1461011c57806323b872dd1461014757806327e235e314610184578063313ce567146101c1576100b2565b366100b257005b005b3480156100c057600080fd5b506100c9610336565b6040516100d69190610bdb565b60405180910390f35b3480156100eb57600080fd5b5061010660048036038101906101019190610c96565b6103c4565b6040516101139190610cf1565b60405180910390f35b34801561012857600080fd5b50610131610524565b60405161013e9190610d1b565b60405180910390f35b34801561015357600080fd5b5061016e60048036038101906101699190610d36565b61052a565b60405161017b9190610cf1565b60405180910390f35b34801561019057600080fd5b506101ab60048036038101906101a69190610d89565b610702565b6040516101b89190610d1b565b60405180910390f35b3480156101cd57600080fd5b506101d661071a565b6040516101e39190610dd2565b60405180910390f35b3480156101f857600080fd5b5061020161072d565b60405161020e9190610d1b565b60405180910390f35b34801561022357600080fd5b5061023e60048036038101906102399190610ded565b61073b565b60405161024b9190610d1b565b60405180910390f35b34801561026057600080fd5b5061027b60048036038101906102769190610d89565b610760565b6040516102889190610d1b565b60405180910390f35b34801561029d57600080fd5b506102a66107a9565b6040516102b39190610bdb565b60405180910390f35b3480156102c857600080fd5b506102e360048036038101906102de9190610c96565b610837565b6040516102f09190610cf1565b60405180910390f35b34801561030557600080fd5b50610320600480360381019061031b9190610ded565b61084e565b60405161032d9190610d1b565b60405180910390f35b6000805461034390610e5c565b80601f016020809104026020016040519081016040528092919081815260200182805461036f90610e5c565b80156103bc5780601f10610391576101008083540402835291602001916103bc565b820191906000526020600020905b81548152906001019060200180831161039f57829003601f168201915b505050505081565b60008073ffffffffffffffffffffffffffffffffffffffff168373ffffffffffffffffffffffffffffffffffffffff1603610434576040517f08c379a000000000000000000000000000000000000000000000000000000000815260040161042b90610eff565b60405180910390fd5b81600560003373ffffffffffffffffffffffffffffffffffffffff1673ffffffffffffffffffffffffffffffffffffffff16815260200190815260200160002060008573ffffffffffffffffffffffffffffffffffffffff1673ffffffffffffffffffffffffffffffffffffffff168152602001908152602001600020819055508273ffffffffffffffffffffffffffffffffffffffff163373ffffffffffffffffffffffffffffffffffffffff167f8c5be1e5ebec7d5bd14f71427d1e84f3dd0314c0f7b2291e5b200ac8c7c3b925846040516105129190610d1b565b60405180910390a36001905092915050565b60035481565b60008073ffffffffffffffffffffffffffffffffffffffff168473ffffffffffffffffffffffffffffffffffffffff160361059a576040517f08c379a000000000000000000000000000000000000000000000000000000000815260040161059190610f91565b60405180910390fd5b81600560008673ffffffffffffffffffffffffffffffffffffffff1673ffffffffffffffffffffffffffffffffffffffff16815260200190815260200160002060003373ffffffffffffffffffffffffffffffffffffffff1673ffffffffffffffffffffffffffffffffffffffff168152602001908152602001600020541015610659576040517f08c379a000000000000000000000000000000000000000000000000000000000815260040161065090611023565b60405180910390fd5b81600560008673ffffffffffffffffffffffffffffffffffffffff1673ffffffffffffffffffffffffffffffffffffffff16815260200190815260200160002060003373ffffffffffffffffffffffffffffffffffffffff1673ffffffffffffffffffffffffffffffffffffffff16815260200190815260200160002060008282546106e59190611072565b925050819055506106f78484846108d5565b600190509392505050565b60046020528060005260406000206000915090505481565b600260009054906101000a900460ff1681565b69d3c21bcecceda100000081565b6005602052816000526040600020602052806000526040600020600091509150505481565b6000600460008373ffffffffffffffffffffffffffffffffffffffff1673ffffffffffffffffffffffffffffffffffffffff168152602001908152602001600020549050919050565b600180546107b690610e5c565b80601f01602080910402602001604051908101604052809291908181526020018280546107e290610e5c565b801561082f5780601f106108045761010080835404028352916020019161082f565b820191906000526020600020905b81548152906001019060200180831161081257829003601f168201915b505050505081565b60006108443384846108d5565b6001905092915050565b6000600560008473ffffffffffffffffffffffffffffffffffffffff1673ffffffffffffffffffffffffffffffffffffffff16815260200190815260200160002060008373ffffffffffffffffffffffffffffffffffffffff1673ffffffffffffffffffffffffffffffffffffffff16815260200190815260200160002054905092915050565b600073ffffffffffffffffffffffffffffffffffffffff168373ffffffffffffffffffffffffffffffffffffffff1603610944576040517f08c379a000000000000000000000000000000000000000000000000000000000815260040161093b90610f91565b60405180910390fd5b600073ffffffffffffffffffffffffffffffffffffffff168273ffffffffffffffffffffffffffffffffffffffff16036109b3576040517f08c379a00000000000000000000000000000000000000000000000000000000081526004016109aa90611118565b60405180910390fd5b80600460008573ffffffffffffffffffffffffffffffffffffffff1673ffffffffffffffffffffffffffffffffffffffff168152602001908152602001600020541015610a35576040517f08c379a0000000000000000000000000000000000000000000000000000000008152600401610a2c906111aa565b60405180910390fd5b80600460008573ffffffffffffffffffffffffffffffffffffffff1673ffffffffffffffffffffffffffffffffffffffff1681526020019081526020016000206000828254610a849190611072565b9250508190555080600460008473ffffffffffffffffffffffffffffffffffffffff1673ffffffffffffffffffffffffffffffffffffffff1681526020019081526020016000206000828254610ada91906111ca565b925050819055508173ffffffffffffffffffffffffffffffffffffffff168373ffffffffffffffffffffffffffffffffffffffff167fddf252ad1be2c89b69c2b068fc378daa952ba7f163c4a11628f55a4df523b3ef83604051610b3e9190610d1b565b60405180910390a3505050565b600081519050919050565b600082825260208201905092915050565b60005b83811015610b85578082015181840152602081019050610b6a565b60008484015250505050565b6000601f19601f8301169050919050565b6000610bad82610b4b565b610bb78185610b56565b9350610bc7818560208601610b67565b610bd081610b91565b840191505092915050565b60006020820190508181036000830152610bf58184610ba2565b905092915050565b600080fd5b600073ffffffffffffffffffffffffffffffffffffffff82169050919050565b6000610c2d82610c02565b9050919050565b610c3d81610c22565b8114610c4857600080fd5b50565b600081359050610c5a81610c34565b92915050565b6000819050919050565b610c7381610c60565b8114610c7e57600080fd5b50565b600081359050610c9081610c6a565b92915050565b60008060408385031215610cad57610cac610bfd565b5b6000610cbb85828601610c4b565b9250506020610ccc85828601610c81565b9150509250929050565b60008115159050919050565b610ceb81610cd6565b82525050565b6000602082019050610d066000830184610ce2565b92915050565b610d1581610c60565b82525050565b6000602082019050610d306000830184610d0c565b92915050565b600080600060608486031215610d4f57610d4e610bfd565b5b6000610d5d86828701610c4b565b9350506020610d6e86828701610c4b565b9250506040610d7f86828701610c81565b9150509250925092565b600060208284031215610d9f57610d9e610bfd565b5b6000610dad84828501610c4b565b91505092915050565b600060ff82169050919050565b610dcc81610db6565b82525050565b6000602082019050610de76000830184610dc3565b92915050565b60008060408385031215610e0457610e03610bfd565b5b6000610e1285828601610c4b565b9250506020610e2385828601610c4b565b9150509250929050565b7f4e487b7100000000000000000000000000000000000000000000000000000000600052602260045260246000fd5b60006002820490506001821680610e7457607f821691505b602082108103610e8757610e86610e2d565b5b50919050565b7f45524332303a20617070726f766520746f20746865207a65726f20616464726560008201527f7373000000000000000000000000000000000000000000000000000000000000602082015250565b6000610ee9602283610b56565b9150610ef482610e8d565b604082019050919050565b60006020820190508181036000830152610f1881610edc565b9050919050565b7f45524332303a207472616e736665722066726f6d20746865207a65726f20616460008201527f6472657373000000000000000000000000000000000000000000000000000000602082015250565b6000610f7b602583610b56565b9150610f8682610f1f565b604082019050919050565b60006020820190508181036000830152610faa81610f6e565b9050919050565b7f45524332303a207472616e7366657220616d6f756e742065786365656473206160008201527f6c6c6f77616e6365000000000000000000000000000000000000000000000000602082015250565b600061100d602883610b56565b915061101882610fb1565b604082019050919050565b6000602082019050818103600083015261103c81611000565b9050919050565b7f4e487b7100000000000000000000000000000000000000000000000000000000600052601160045260246000fd5b600061107d82610c60565b915061108883610c60565b92508282039050818111156110a05761109f611043565b5b92915050565b7f45524332303a207472616e7366657220746f20746865207a65726f206164647260008201527f6573730000000000000000000000000000000000000000000000000000000000602082015250565b6000611102602383610b56565b915061110d826110a6565b604082019050919050565b60006020820190508181036000830152611131816110f5565b9050919050565b7f45524332303a207472616e7366657220616d6f756e742065786365656473206260008201527f616c616e63650000000000000000000000000000000000000000000000000000602082015250565b6000611194602683610b56565b915061119f82611138565b604082019050919050565b600060208201905081810360008301526111c381611187565b9050919050565b60006111d582610c60565b91506111e083610c60565b92508282019050808211156111f8576111f7611043565b5b9291505056fea26469706673582212204bb4ca613f14c1105beb5a59d876e576f7d7efcd10f898b9281a64d95464330764736f6c63430008110033",
  "linkReferences": {},
  "deployedLinkReferences": {}
}